:020000021000EC
:1080000000800020A5FC0100EDFC01009999010011
:108010000000000000000000000000000000000060
:10802000000000000000000000000000F1FC010062
:108030000000000000000000F3FC0100F5FC01005E
:10804000F7FC0100F7FC0100B5D30100F7FC0100CB
:10805000F7FC0100000000005DFB0100F7FC0100DF
:10806000F7FC0100F7FC0100F7FC0100F7FC010040
:10807000F7FC0100F7FC0100F7FC0100F7FC010030
:10808000F7FC0100C1B80100F7FC0100F7FC01009A
:108090000DB9010019D9010031DD0100F7FC010023
:1080A000F7FC0100F7FC01000000000000000000E8
:1080B00000000000000000000000000000000000C0
:1080C000164B002B00D1144B9D46402292029A1A67
:1080D000924600218B460F461348144A121A00F0AC
:1080E00067F80F4B002B00D098470E4B002B00D0A9
:1080F00098470020002104000D000D48002802D000
:108100000C4800E000BF00F02DF82000290000F02E
:108110003BFC00F011F8C046000008000080002081
:10812000000000000000000084200020DC29002066
:108130000000000000000000084B10B5041C002BDC
:1081400002D0002100E000BF054B1868836A002BB5
:1081500000D09847201C00F033F8C0460000000013
:10816000480002000E4B70B500251E1C0D4CE41A91
:10817000A410A54204D0AB00F35898470135F8E7A6
:1081800007F054FF084B00251E1C084CE41AA410ED
:10819000A54204D0AB00F35898470135F8E770BD0D
:1081A00084200020842000208420002084200020BF
:1081B000031C8218934202D019700133FAE770470A
:1081C000FEE7C04670DF7047181CC04671DF70477D
:1081D000181CC04672DF7047181CC04673DF70471A
:1081E000181CC04660DF7047181CC04648DF704747
:1081F000181CC04652DF7047181CC04680B582B0BC
:1082000000AF021C3960BB1D1A8000BEBB1D1A885E
:1082100004493B68081C111C1A1C02F0C7FBBD4630
:1082200002B080BDEFBEADDE80B584B000AF786037
:108230007B685A010A4BD318FB60094A7B685B01D3
:10824000D3181833DB79FA68101C191C002200239C
:10825000FFF7C0FF031C181CBD4604B080BDC0461C
:108260008420002080B584B000AF3B1D181CFFF7B0
:10827000C1FF031CFB60FB68002B06D0FA68184B9B
:10828000101C82211A1C02F091FB7B68002B00DA83
:1082900003339B101A1C0B23FB181A707A68131CEB
:1082A0009B009B189A009B18181C642107F09AFEEB
:1082B0000B1C1A1C0A23FB181A700B23FB181B78C3
:1082C0005BB21B029AB20A23FB181B785BB29BB20B
:1082D00013439BB29BB2181CBD4604B080BDC04680
:1082E0004C00020080B582B000AF1F491F4B1B68D5
:1082F0001F4A8B501C4A80235B000021D1501A4A30
:10830000A023DB000121D150174A80235B0000210C
:10831000D150154B01221A60C046134A80235B00DE
:10832000D358002BF9D0104AA123DB00D358962252
:10833000D2005343181CFF2107F0DEFC031C9BB244
:10834000BA1D191C0B1CDB185B181380064A80230E
:108350005B000021D150044B01225A60BB1D1B88D9
:10836000181CBD4602B080BD007000406020002097
:108370000405000090B583B000AF2F4B7B602F4BFE
:108380003B607A683B68101C20211A1C00F04CFFEF
:108390003B681B785A1CD1B23A6811701A1C7B6872
:1083A0009B1800221A70FFF79DFF031C1C1C7A68A3
:1083B0003B68101C191C221C01F01AF8FFF752FF31
:1083C000031C1C1C7A683B68101C191C221C01F041
:1083D0000FF81B4B1B6879683A68081C111C1A1CA3
:1083E00000F0C0FF174B1B6879683A68081C111C25
:1083F0001A1C00F0B7FF3B681B785A1CD1B23A68D0
:1084000011701A1C7B689B1800221A703B681B783D
:108410005A1CD1B23A6811701A1C7B689B18002252
:108420001A707B6807333A681278083AD2B21A7029
:10843000BD4603B090BDC046C4200020E32000200C
:10844000E4200020E820002080B582B000AF1E4B61
:108450007B601E4B3B607A683B68101C10211A1C25
:1084600000F0E2FE3B681B785A1CD1B23A681170EA
:108470001A1C7B689B18C3221A703B681B785A1C15
:10848000D1B23A6811701A1C7B689B1802221A70CC
:108490003B681B781A1C7B689A180D4B101C191C22
:1084A0000D2207F0BAFD3B681B780D33DAB23B684A
:1084B0001A707B6807333A681278083AD2B21A7099
:1084C000BD4602B080BDC046A4200020C3200020CD
:1084D0005800020080B582B000AF474B7B60474B2D
:1084E0003B607A683B68101C00211A1C00F09CFE5F
:1084F0003B681B785A1CD1B23A6811701A1C7B6811
:108500009B18C3221A703B681B781A1C7B689A1848
:108510003B4B101C191C0A2207F07FFD3B681B789F
:108520000A33DAB23B681A703B681B785A1CD1B226
:108530003A6811701A1C7B689B18324A12781A70BC
:108540003B681B785A1CD1B23A6811701A1C7B68C0
:108550009B182D4A12781A703B681B785A1CD1B2AE
:108560003A6811701A1C7B689B18284A12781A7096
:108570003B681B785A1CD1B23A6811701A1C7B6890
:108580009B18234A12781A703B681B785A1CD1B288
:108590003A6811701A1C7B689B181E4A12781A7070
:1085A0003B681B785A1CD1B23A6811701A1C7B6860
:1085B0009B18194A12781A703B681B785A1CD1B262
:1085C0003A6811701A1C7B689B1800221A703B686D
:1085D0001B785A1CD1B23A6811701A1C7B689B1820
:1085E00000221A707B6807333A681278083AD2B2D0
:1085F0001A70BD4602B080BD84200020A320002058
:108600009C000200A9000010A8000010A7000010A4
:10861000A6000010A5000010A400001080B500AF57
:10862000FFF758FFFFF710FFFFF7A4FE0020FFF74A
:10863000FBFD0B4B181C00211822FFF7B9FD084B5E
:1086400003221A70064B00225A60054B00221A7250
:10865000034BA0221A82024B00225A82BD4680BDE3
:10866000EC20002080B582B000AF134B181CFFF740
:10867000B5FD031C7B607B68002B08D079688F23D5
:108680005A000E4B081C111C1A1C02F08FF9022014
:1086900001F0A2F9031C3B603B68002B08D039684D
:1086A00090235A00054B081C111C1A1C02F07EF97D
:1086B000BD4602B080BDC046EC2000204C00020048
:1086C00080B582B000AF021CFB1D1A70FB1D1B7829
:1086D00001225340DBB2002B00D03DE0204B1B6851
:1086E0005A1C1F4B1A601F4B1B685A1C1D4B1A60EB
:1086F0001B4B1B68181C092107F084FB0B1E0AD1B9
:10870000FFF738FE0220FFF78FFD174B1B685A1C3E
:10871000154B1A6020E0124B1B68181C052107F04E
:1087200071FB0B1E08D10120FFF77EFD0E4B1B686D
:108730005A1C0D4B1A600FE0094B1B68181C0321D3
:1087400007F060FB0B1E07D10020FFF76DFD064B05
:108750001B685A1C044B1A60BD4602B080BDC0465F
:1087600004210020E8200020E420002080B58AB009
:1087700000AF344B0820191C4822002305F06AFA88
:10878000031C7B627B6A3B623B6A002B08D0396A20
:10879000A4235A002C4B081C111C1A1C02F006F9C9
:1087A0003B1D181C00210822FFF702FD3B1D1A7813
:1087B00001210A431A703B1D181CFFF713FD031C0F
:1087C000FB61FB69002B09D0F9694E23FF331A1CAA
:1087D0001D4B081C111C1A1C02F0E8F80C23FB1896
:1087E000181CFFF7F3FC0C23FB180020191CFFF7E3
:1087F000E9FC164B181C05F073FA031CBB61BB693E
:10880000002B09D0B9695423FF331A1C0E4B081CE6
:10881000111C1A1C02F0CAF80D4B181C05F074FA52
:10882000031C7B617B69002B08D07969AB235A005C
:10883000054B081C111C1A1C02F0B8F8BD460AB002
:1088400080BDC046082100204C0002009991010023
:108850000992010090B587B002AF194C0023009334
:10886000002004210522231C03F056F8031CFB60A2
:10887000FB68BB60BB68002B09D0B9686423FF3379
:108880001A1C104B081C111C1A1C02F08FF80E4BFE
:108890000120191C002201F0ADF8031C7B607B68ED
:1088A0003B603B68002B08D03968B4235A00054B65
:1088B000081C111C1A1C02F079F8BD4605B090BDC9
:1088C000502100204C000200CD0C000080B582B089
:1088D00000AF0D4B032006211A1C05F03DF8031CC8
:1088E0007B607B683B603B68002B09D0396876234E
:1088F000FF331A1C054B081C111C1A1C02F056F8F9
:10890000BD4602B080BDC046C18601004C000200D9
:1089100080B582B000AF0D4B08200A211A1C03F06D
:10892000E7F9031C7B607B683B603B68002B09D048
:1089300039687E23FF331A1C054B081C111C1A1CB6
:1089400002F034F8BD4602B080BDC046B823002016
:108950004C00020080B582B000AFFFF747FC031C5B
:108960007B607B68002B09D079688623FF331A1C53
:10897000044B081C111C1A1C02F018F8BD4602B06A
:1089800080BDC0464C00020080B500AFFFF7EEFE90
:10899000FFF7BEFF01F0ACFF1049114A114B081C54
:1089A000111C1A1C00F04AFF00F0DAFAFFF752FF20
:1089B000FFF78CFF00F016FA00F0CCFAFFF72EFE5E
:1089C00000F0D4F900F028F900F0C6F8FFF74AFEED
:1089D00003F020FAFFF7BEFFFAE7C0466800020086
:1089E000840002009000020076DF7047181CC04629
:1089F0007ADF7047181CC0467FDF7047181CC046DE
:108A000082DF7047181CC046A7DF7047181CC0469D
:108A1000A9DF7047181CC0463CDF7047181CC046D1
:108A200080B588B000AF78600C23FB1804225A6030
:108A30000C23FB182B4A9A607A680C23FB18101C35
:108A4000191C06F0A3F9031CFB61FB69002B3BD149
:108A5000244B1B680122134024D0234B1B88234A3C
:108A6000181C0C21FFF7D0FF031CFB61FB69002BD6
:108A700018D0FB691E4A934214D0FB69082B11D011
:108A8000FB691C4A93420DD0FB69112B0AD0FB698C
:108A9000194A934206D0FA69184B101C49211A1C36
:108AA00001F084FF7B68181C06F07CF9031CBB6195
:108AB000BB69002B07D0BA69104B101C4D211A1C42
:108AC00001F074FF0BE00AE0FB690D4A934206D007
:108AD000FA690A4B101C53211A1C01F067FFBD46AE
:108AE00008B080BDA824002064200020FFFF000003
:108AF000023000000430000001340000A800020031
:108B00004080000080B586B000AFF860B9607A6040
:108B10007B687B617B69002B06D07A690C4B101C4B
:108B20005E211A1C01F042FFBB681B78152B00D098
:108B300008E0084B181C00F097FEFB68181CFFF7B4
:108B40006FFFC0460023181CBD4606B080BDC0465E
:108B5000A8000200B800020080B586B000AF0C2368
:108B6000FB18181C00210122FFF722FB0C23FB1825
:108B7000181C05F0DFFF031C7B617B69002B06D00E
:108B80007A69224B101C80211A1C01F00FFF3B1C3C
:108B90000533181C00210522FFF70AFB3B1C5A79FC
:108BA00001210A435A713B1C5A7902218A435A71A6
:108BB0003B1C5A791C218A43111C0C220A435A710E
:108BC0003B1C5A7920218A435A713B1C07229A7117
:108BD0003B1C1022DA713B1C0D4A1A603B1C01221F
:108BE0001A710C4A3B1C101C191C06F059F8031C86
:108BF0003B613B69002B06D03A69044B101C8D2168
:108C00001A1C01F0D3FEBD4606B080BDA8000200CC
:108C1000058B01009824002080B500AF0F4B1A7817
:108C200001210A431A700D4B1A7802218A431A70E7
:108C30000A4B1A781C218A43111C0C220A431A7011
:108C4000064B1A7820218A431A70044B07225A7067
:108C5000024B10229A70BD4680BDC0469C24002065
:108C600080B582B000AF1E4B1B881E4A181C0C2119
:108C7000FFF7CAFE031C7B607B68112B16D006D859
:108C8000062B1AD0082B11D0002B0AD01AE0164A56
:108C900093420BD0154A934208D0154A934205D00F
:108CA00010E0144B181C00F0DFFD13E0124A7B6843
:108CB000101C191C00F0C2FD0CE0104B181C00F039
:108CC000D3FD07E07A680E4B101CBA211A1C01F084
:108CD0006DFEC0467B68181CBD4602B080BDC04614
:108CE00064200020FFFF0000043000000134000079
:108CF00002300000CC000200E80002000C0102007B
:108D0000A800020080B584B000AF78607B681B7853
:108D1000002B13D10B4B1B88181C3B21FFF764FE63
:108D2000031CFB60FB68BB60BB68002B06D0BA6805
:108D3000054B101CCC211A1C01F038FEBD4604B0B6
:108D400080BDC04664200020A800020080B582B02B
:108D500000AF78607A68044B101CD5211A1C01F012
:108D600025FEBD4602B080BDA800020080B588B0D7
:108D700000AF3B1C181C00211C22FFF719FA3B1CFA
:108D800000221A603B1CA02212035A603B1CA02246
:108D900092029A603B1C03221A733B1C0022DA8168
:108DA0003B1C00221A743B1C0B4A5A613B1C0B4AA9
:108DB0009A613B1C181C04F029FC031CFB61FB6935
:108DC000002B06D0FA69064B101CEA211A1C01F090
:108DD000EDFDBD4608B080BD058D01004D8D010043
:108DE000A800020080B584B000AF3B1C1A780F21A8
:108DF0008A43111C01220A431A703B1C1A780F2166
:108E00000A40111C10220A431A703B1D181C002135
:108E10000822FFF7CDF93B1D50221A803B1DA022EE
:108E20005A803B1D00229A803B1DC8225200DA80E6
:108E30003B1D181CFFF7DCFD031CFB60FB68002BCF
:108E400006D0FA68044B101CFE211A1C01F0AEFD7E
:108E5000BD4604B080BDC046A800020080B582B007
:108E600000AF78607B681B88542B08D1054B181C19
:108E700000F0FAFC044B1B88181C01F079FCBD467D
:108E800002B080BD2C0102006420002080B582B0B9
:108E900000AF134B181C00F0E7FC124B1B88124A62
:108EA000934219D0FB1D13221A700E4B1A88FB1D1A
:108EB0001B78101C191CFFF797FD031C3B603B68D7
:108EC000002B09D039681A23FF331A1C074B081CE2
:108ED000111C1A1C01F06AFDBD4602B080BDC046DF
:108EE0009001020064200020FFFF0000A8000200A3
:108EF00080B584B000AF3B1C181C00210C22FFF78A
:108F000057F93B1C0F4A5A603B1C00229A600E4ADC
:108F10003B1C101C191C01F081F9031CFB60FB6851
:108F2000002B08D0F96895235A00084B081C111C27
:108F30001A1C01F03BFD064B181C01F0A7FCBD46B6
:108F400004B080BD41A8010068240020A8000200F0
:108F50008D8E010080B500AFFFF7CAFFBD4680BD12
:108F600080B582B000AF03F08FFC031C7B607B6890
:108F7000002B08D079689E235A00044B081C111C52
:108F80001A1C01F013FDBD4602B080BDA80002000E
:108F900080B58EB000AF78607B681B88132B26D01D
:108FA00007DC102B11D0112B18D0012B00D1D4E0ED
:108FB000D4E0172B52D002DC142B59D0CEE0192B61
:108FC00000D1B0E0522B2DD0C8E0664B181C00F049
:108FD0004BFC7B689A88644B1A80BFE0634B181C7B
:108FE00000F042FC604B012252421A80B6E05E4B18
:108FF00019885F4A5F4B081C0021FFF7FDFC031C2A
:109000007B637B6B3B633B6B002B0AD0396B60232C
:10901000FF331A1C584B081C111C1A1C01F0C6FC0B
:109020009CE09BE00323FB624F4B1A88FB6A101CF9
:1090300000210022FFF7ECFC031C7B637B6BBB620F
:10904000BB6A002B09D0B96AB4235A004A4B081CEA
:10905000111C1A1C01F0AAFC80E07FE047497B68E4
:1090600006229B180622081C191C06F0D6FF75E084
:109070007B680E331A1C424B101C191C0A2206F086
:10908000BDFF021C2723FB1851424A411A703D4B79
:109090003B623B6A1B7801221340DBB2002B06D0F7
:1090A0002723FB181B78002B01D0374B00E000234F
:1090B000FB613B6A1B7802221340DBB2002B06D017
:1090C0002723FB181B78002B01D0304B00E0002336
:1090D000BB613B6A1B7804221340DBB2002B06D035
:1090E0002723FB181B78002B01D0294B00E000231D
:1090F0007B611D4B1888F969BA697B69FFF780FCB1
:10910000031C7B637B6B3B613B69002B0AD0396995
:109110008623FF331A1C184B081C111C1A1C01F063
:1091200045FC1BE01AE07B689B79002B14D1194B9E
:10913000181C00F099FBFFF76FFC031CFB60FB6839
:10914000002B09D0F968C7235A000B4B081C111CCF
:109150001A1C01F02BFC01E000E0C046BD460EB039
:1091600080BDC0464801020064200020600102006A
:109170009C24002068200020A8000200AC240020CD
:10918000C6240020B0240020B4240020D0240020D5
:10919000E82400207C01020080B582B000AF786036
:1091A0007B68181C04F080FB7B68181C05F0A0FF8E
:1091B0007B68181CFFF752FE064A7B68101C191CBE
:1091C00001F0B2F87B68181CFFF7E2FEBD4602B062
:1091D00080BDC0466824002080B582B000AF7860B2
:1091E0007B68023B012B08D8064B1B78002B03D071
:1091F000044B00221A7001E000E0C046BD4602B0F8
:1092000080BDC046A424002080B582B000AF786045
:109210007B68181C02F080FF7B68181CFFF7DCFFDE
:10922000BD4602B080BDC04680B584B000AFF860D6
:109230007A600B23FB180A1C1A707B681B780C33AE
:109240001F2B01DD0C2389E07B6800221A707B68EC
:109250001B785A1CD1B27A6811701A1CFB689B18D3
:1092600002221A707B681B785A1CD1B27A6811707E
:109270001A1CFB689B1801221A707B681B785A1C09
:10928000D1B27A6811701A1CFB689B1806221A70FA
:109290007B681B785A1CD1B27A6811701A1CFB6863
:1092A0009B1803221A707B681B785A1CD1B27A680B
:1092B00011701A1CFB689B1803221A707B681B78BC
:1092C0005A1CD1B27A6811701A1CFB689B18AA222A
:1092D0001A707B681B785A1CD1B27A6811701A1CFC
:1092E000FB689B18FE221A707B681B785A1CD1B24F
:1092F0007A6811701A1CFB689B1803221A707B682D
:109300001B785A1CD1B27A6811701A1CFB689B1822
:1093100016221A707B681B785A1CD1B27A681170B9
:109320001A1CFB689B18AA221A707B681B785A1CAF
:10933000D1B27A6811701A1CFB689B18FE221A7051
:109340007B681B785A1CD1B27A6811701A1CFB68B2
:109350009B180B22BA1812781A700023181CBD46ED
:1093600004B080BD80B584B000AFF860B9607A60A9
:10937000BB681B7804331F2B01DD0C2333E0BB6873
:109380001B785A1CD1B2BA6811701A1CFB689B1862
:109390007A68120ED2B21A70BB681B785A1CD1B20E
:1093A000BA6811701A1CFB689B187A68120CD2B24A
:1093B0001A70BB681B785A1CD1B2BA6811701A1C9B
:1093C000FB689B187A68120AD2B21A70BB681B78C5
:1093D0005A1CD1B2BA6811701A1CFB689B187A68C3
:1093E000D2B21A700023181CBD4604B080BDC0461E
:1093F00080B584B000AFF860B960BB1D1A80BB684F
:109400001B7802331F2B01DD0C231CE0BB681B788B
:109410005A1CD1B2BA6811701A1CFB689B18BA1D8D
:109420001288120A92B2D2B21A70BB681B785A1C08
:10943000D1B2BA6811701A1CFB689B18BA1D128849
:10944000D2B21A700023181CBD4604B080BDC046BD
:1094500080B582B000AF78607B68DBB2181C01F089
:1094600087FA0023181CBD4602B080BD80B582B0CB
:1094700000AF786039607B68002B0AD07B681B687E
:109480003A68D2B21A707B681B685A1C7B681A60F3
:1094900009E03B680A2B02D10D20FFF7D9FF3B689A
:1094A000181CFFF7D5FFBD4602B080BDF0B587B0F0
:1094B00000AF78613961FA60BB60002420237B60D3
:1094C000FB68002B16DD00253E6901E00135013601
:1094D0003378002BFAD1FB689D4202DB0023FB604E
:1094E00002E0FB685B1BFB60BB680222134001D0FB
:1094F00030237B60BB68012213400CD108E07B69FC
:10950000181C7968FFF7B2FF0134FB68013BFB6070
:10951000FB68002BF3DC0BE03B691B781A1C7B69B2
:10952000181C111CFFF7A2FF01343B6901333B619A
:109530003B691B78002BEFD108E07B69181C796828
:10954000FFF794FF0134FB68013BFB60FB68002BD5
:10955000F3DC231C181CBD4607B0F0BDF0B5474630
:1095600080B48AB000AF78613961FA60BB600023D3
:10957000984600253B697B603B69002B18D114237A
:1095800008229446BC44634430221A7014230822F3
:109590009446BC44634400225A707869142308221C
:1095A000BA18D1183A6C7B6CFFF780FF031C50E0AF
:1095B000BB68002B0AD0FB680A2B07D13B69002B44
:1095C00004DA012398463B695B427B60142308223E
:1095D000BA18D4180B340023237017E0FB6878689E
:1095E000191C06F00FFC0B1C1E1E092E02DDBB6CA5
:1095F0003A3BF618013CF3B23033DBB22370FB6820
:109600007868191C06F078FB031C7B607B68002BD4
:10961000E4D14346002B13D03B6C002B0DD07B6C68
:109620000222134009D07B69181C2D21FFF71EFF71
:1096300001353B6C013B3B6402E0013C2D23237070
:1096400079693A6C7B6C081C211CFFF72FFF031C07
:109650005B19181CBD460AB004BC9046F0BDC0465C
:10966000F0B58BB004AFF860B9607A600024D1E047
:10967000BB681B78252B00D0C0E0BB680133BB6002
:109680000026351CBB681B78002B00D1C7E0BB68E7
:109690001B78252B00D1B1E0BB681B782D2B03D1A3
:1096A000BB680133BB60012605E0BB680133BB60CA
:1096B000022333431E1CBB681B78302BF5D00BE014
:1096C0002B1C9B005B195B001D1CBB681B78303B8F
:1096D000ED18BB680133BB60BB681B782F2B03D927
:1096E000BB681B78392BEBD9BB681B78732B11D166
:1096F0007B681A1D7A601B68002B00D000E04E4B7F
:10970000FA68101C191C2A1C331CFFF7CFFE031C1F
:10971000E4187CE0BB681B78642B11D17B681A1DB0
:109720007A601A68F9680095019661230293081C13
:10973000111C0A220123FFF711FF031CE41866E045
:10974000BB681B78782B11D17B681A1D7A601A6868
:10975000F9680095019661230293081C111C1022E0
:109760000023FFF7FBFE031CE41850E0BB681B78E6
:10977000582B11D17B681A1D7A601A68F968009518
:10978000019641230293081C111C10220023FFF7AD
:10979000E5FE031CE4183AE0BB681B78752B11D179
:1097A0007B681A1D7A601A68F96800950196612332
:1097B0000293081C111C0A220023FFF7CFFE031C92
:1097C000E41824E0BB681B78632B20D17B681A1D4A
:1097D0007A601B68DAB21423FB181A701423FB1882
:1097E00000225A70FA681423FB18101C191C2A1C3A
:1097F000331CFFF75BFE031CE41808E0BB681B7812
:109800001A1CFB68181C111CFFF730FE0134BB68E2
:109810000133BB60BB681B78002B00D028E7FB68D6
:10982000002B03D0FB681B6800221A70231C181C35
:10983000BD4607B0F0BDC046A00102000FB480B520
:1098400082B000AF1423FB187B603A697B6800206C
:10985000111C1A1CFFF704FF031C181CBD4602B0A4
:1098600080BC08BC04B0184780B582B000AF7860F7
:1098700006E07B685A1C7A601B78181CFFF7E8FD2D
:109880007B681B78002BF4D10D20FFF7E1FD0A2047
:10989000FFF7DEFD0023181CBD4602B080BDC046A8
:1098A00080B590B000AF78607B681B68FB637B6815
:1098B0005B68BB637B689B687B637B68DB683B633F
:1098C0007B681B69FB627B685B69BB627B689B6929
:1098D0007B627B68DB693B62214B1B68FB61214B30
:1098E0001B68BB61204B1B687B61204B1B683B6185
:1098F0001F4B1B68BB601F4B1B68FB601E4B181C7B
:10990000FFF7B2FFFB6B1D4A101C191CFFF796FFF7
:10991000BB6B1B4A101C191CFFF790FF7B6B194A8D
:10992000101C191CFFF78AFF3B6B174A101C191CEF
:10993000FFF784FFFB6A154A101C191CFFF77EFF16
:10994000BB6A134A101C191CFFF778FF7B6A114A87
:10995000101C191CFFF772FF00BEBD4610B080BD81
:1099600028ED00E02CED00E030ED00E03CED00E003
:1099700034ED00E038ED00E0A8010200B40102007F
:10998000C4010200D4010200E4010200F40102005B
:10999000040202001402020004207146084202D0B0
:1099A000EFF309807CE7EFF3088079E780B582B0B8
:1099B00000AF78600A1CFB1C1A70A023DB05FA1CA0
:1099C00012789200111C7A68C132FF329200D15095
:1099D000BD4602B080BDC04680B584B000AF021C59
:1099E000FB1D1A700023FB60FB68181CBD4604B009
:1099F00080BDC04690B58BB000AFF860B9607A60AA
:109A000000233B62FB680222134018D01023FB188E
:109A10000D4A13CA13C312681A6000237B620BE05D
:109A20001023FB187A6A9200D358181C0321FFF701
:109A3000BDFF7B6A01337B627B6A032BF0D93B6AF3
:109A4000181CBD460BB090BD24020200A0DF704779
:109A5000181CC046A2DF7047181CC046A5DF70471F
:109A6000181CC046A6DF7047181CC046A8DF704708
:109A7000181CC04663DF7047181CC04680B582B012
:109A800000AF78607B681B789AB27B6801331B78E3
:109A90001B029BB213439BB29BB2181CBD4602B083
:109AA00080BDC04690B585B000AF78600E23FC182D
:109AB0007B68181CFFF7E2FF031C23800E23FB18B2
:109AC0001B88012213405A1E9341DBB2181CBD466D
:109AD00005B090BD80B590B000AF78602423FB182E
:109AE000181C00211C22FEF763FB2423FB181A78A4
:109AF00004210A431A702423FB1800225A602423ED
:109B0000FB180022DA602423FB1800221A612423A8
:109B1000FB1800225A612423FB1800229A617B68FB
:109B20009A790C23FB189A700C23FB18384A1A8078
:109B30000823FB18181C00210322FEF739FB082319
:109B4000FB181A780F218A431A700823FB181A7819
:109B50000F210A401A700823FB185A780F218A43F4
:109B6000111C01220A435A700823FB185A780F214E
:109B70000A40111C10220A435A700823FB189A78D5
:109B800006218A43111C02220A439A700823FB18FB
:109B90009A7808218A439A700823FB189A78102132
:109BA0008A439A700823FB189A7801210A439A7015
:109BB0001023FB18181C00211422FEF7F9FA1023B9
:109BC000FB180C22BA181A601023FB180822BA18C6
:109BD0005A601023FB1800221A811023FB18002260
:109BE0005A811023FB1814229A811023FB1800229B
:109BF0001A617B6898887B6808332422B918102280
:109C0000BA18FFF727FF031C181CBD4610B080BD13
:109C10003215000080B590B000AF78603960242321
:109C2000FB18181C00211C22FEF7C2FA2423FB1883
:109C30001A7802210A431A702423FB1800225A6062
:109C40002423FB180022DA602423FB1800221A6167
:109C50002423FB1800225A612423FB1800229A6156
:109C60007B689A790C23FB189A700C23FB18394AED
:109C70001A800823FB18181C00210322FEF798FA0B
:109C80000823FB181A780F218A43111C01220A436A
:109C90001A700823FB181A780F210A40111C102291
:109CA0000A431A700823FB185A780F218A435A7006
:109CB0000823FB185A780F210A405A700823FB1812
:109CC0009A7806218A43111C02220A439A700823BB
:109CD000FB189A7808218A439A700823FB189A780F
:109CE00010218A439A700823FB189A7801210A43AD
:109CF0009A701023FB18181C00211422FEF758FA42
:109D00001023FB180C22BA181A601023FB18082223
:109D1000BA185A601023FB1802221A811023FB186C
:109D200000225A811023FB1802229A813A681023DC
:109D3000FB181A617B6898887B6820332422B91845
:109D40001022BA18FFF786FE031C181CBD4610B07F
:109D500080BDC0463415000080B590B000AF78607B
:109D60002423FB18181C00211C22FEF721FA2423AF
:109D7000FB181A7808210A431A702423FB181A7852
:109D800010210A431A702423FB1800225A6024234E
:109D9000FB180022DA602423FB1800221A61242316
:109DA000FB1800225A612423FB1800229A617B6869
:109DB0009A790C23FB189A700C23FB18384A1A80E6
:109DC0000823FB18181C00210322FEF7F1F90823D1
:109DD000FB181A780F218A431A700823FB181A7887
:109DE0000F210A401A700823FB185A780F218A4362
:109DF000111C01220A435A700823FB185A780F21BC
:109E00000A40111C10220A435A700823FB189A7842
:109E100006218A43111C02220A439A700823FB1868
:109E20009A7808218A439A700823FB189A7810219F
:109E30000A439A700823FB189A7801210A439A7002
:109E40001023FB18181C00211422FEF7B1F910236F
:109E5000FB180C22BA181A601023FB180822BA1833
:109E60005A601023FB1800221A811023FB180022CD
:109E70005A811023FB1817229A811023FB18002205
:109E80001A617B6898887B6810332422B9181022E5
:109E9000BA18FFF7DFFD031C181CBD4610B080BDCB
:109EA0003115000080B582B000AF786039603B6842
:109EB0009A887B681A80BD4602B080BD80B586B0A6
:109EC00000AF78600823FB18181C00210822FEF759
:109ED0006FF90823FB1802221A800823FB180022BE
:109EE0005A800823FB181022BA185A607B68198818
:109EF0007B689A8A0823FB18081C111C1A1CFFF7A0
:109F0000ADFD031C7B617B69002B0AD07B68DB6A9B
:109F1000002B04D07B68DB6A7A69101C9847002309
:109F200005E01023FB18181CFFF7BCFD031C181CD0
:109F3000BD4606B080BDC04680B58AB000AF78602F
:109F400039601423FB1802221A707B68181CFFF773
:109F5000B5FF031C1A1C01235340DBB2002B0ED0AB
:109F60001423FB18FE22FF329A807B681A88142380
:109F7000FB18101C191CFFF779FD031CDFE01423EC
:109F8000FB1800229A807B681A881423FB18101C87
:109F9000191CFFF76BFD031C7B627B6A002B01D051
:109FA0007B6ACCE03B689B7E082B00D9BCE09A0022
:109FB000654BD3181B689F460823FB1800221A70B4
:109FC0003B681B8B012B09D83B689B7E7A68101C71
:109FD000191C062200F0E4F9031CB0E00823FB186A
:109FE00001221A713B681B331A1C0823FB189A6064
:109FF0007B689B6A79680822BA18081C111C98476C
:10A000009CE00823FB1801221A703B681B8B012B74
:10A0100009D83B689B7E7A68101C191C062200F048
:10A02000BFF9031C8BE00823FB1801221A713B685F
:10A030001B331A1C0823FB189A607B689B6A79689B
:10A040000822BA18081C111C984777E00823FB184F
:10A0500002221A707B689B6A79680822BA18081C69
:10A06000111C98476AE00823FB1803221A707B68CA
:10A070009B6A79680822BA18081C111C98475DE091
:10A080000823FB1804221A707B689B6A79680822EF
:10A09000BA18081C111C984750E00823FB18052229
:10A0A0001A707B689B6A79680822BA18081C111C10
:10A0B000984743E03B681B8B022B07D87B68181C32
:10A0C0000821032200F06CF9031C38E03B681B33C5
:10A0D000181CFFF7D3FC031C1A1C0823FB189A80DA
:10A0E0000823FB189B88002B04D10823FB180722A8
:10A0F0001A7003E00823FB1806221A707B689B6A1B
:10A1000079680822BA18081C111C984716E0082321
:10A11000FB1809221A707B689B6A79680822BA18B2
:10A12000081C111C984709E03B689B7E7A68101C4C
:10A13000191C032200F034F9031C00E00023181C52
:10A14000BD460AB080BDC0463402020080B584B06E
:10A1500000AF786039603B680633FB60FB681B78B2
:10A16000022B26D1FB685A887B681B8A9A4220D131
:10A170003B689B7A042B1CD03B689B7A062B18D03B
:10A180003B689B7A052B14D0FB6802337A68101C5D
:10A19000191CFFF7D1FE031CBB60BB68002B08D065
:10A1A0007B68DB6A002B04D07B68DB6ABA68101C12
:10A1B0009847BD4604B080BD80B586B000AF7860DA
:10A1C00039603B68DA887B681B899A4217D10C2377
:10A1D000FB1808221A703B68DB8BDAB20C23FB18E1
:10A1E0001A713B6820331A1C0C23FB189A607B6899
:10A1F0009B6A79680C22BA18081C111C9847BD4646
:10A2000006B080BD80B582B000AF786039607B68F1
:10A21000012252421A80BD4602B080BD80B588B08E
:10A2200000AF786039607B68002B06D03B68002B5C
:10A2300003D03B685B68002B01D10E236AE07B688A
:10A24000012252421A800823FA18344B111C1A1C9E
:10A250001023081C111C1A1C05F0DFFE1823FB1824
:10A260002F4A1A800823FA181823FB180233101CEF
:10A27000191CFFF7FFFB031CFB61FB69002B01D0DE
:10A28000FB6947E07B6804331822BA180120111CCF
:10A290001A1CFFF7DBFB031CFB61FB69002B01D0E1
:10A2A000FB6937E01823FB189A787B689A717B6802
:10A2B000181CFFF70FFC031CFB61FB69002B01D08E
:10A2C000FB6927E07B68181CFFF746FD031CFB6158
:10A2D000FB69002B01D0FB691CE07A683B68101C0D
:10A2E000191CFFF797FC031CFB61FB69002B01D0D5
:10A2F000FB690FE03B685A687B689A623B689B6821
:10A30000002B03D03B689A687B68DA62054B012218
:10A310001A700023181CBD4608B080BD5802020008
:10A3200030150000F824002080B582B000AF7860BE
:10A3300039607B68002B02D03B68002B00D12CE0F9
:10A340007B689B6A002B28D03B681B88112B16D09A
:10A3500002DC102B05D020E0502B09D0512B15D05A
:10A360001BE07A683B68101C191CFFF79BFD14E08A
:10A370007A683B68101C191CFFF71EFF0DE07A6815
:10A380003B68101C191CFFF73DFF06E07A683B682C
:10A39000101C191CFFF7DAFEC046BD4602B080BD96
:10A3A00080B588B000AF7860081C111CFB1C021C33
:10A3B0001A70BB1C0A1C1A707B68002B01D10E237B
:10A3C0005DE07B681B88304A934206D02F4B1B7898
:10A3D00001225340DBB2002B01D008234FE00E23B3
:10A3E000FB1800221A800E23FB181B885A1C91B2FE
:10A3F0000E22BA1811801A1C254B102199540E23D5
:10A40000FB181B885A1C91B20E22BA181180191C15
:10A410001F4BFA1C12785A540E23FB181B885A1C27
:10A4200091B20E22BA181180191C194BBA1C12785D
:10A430005A541023FB18181C00211022FDF7B8FEF7
:10A440007B681A8A1023FB181A801023FB1801223C
:10A450009A701023FB1800229A801023FB180E22FA
:10A46000BA189A601023FB18094ADA607B681A88C8
:10A470001023FB18101C191CFFF7F4FA031C181CFE
:10A48000BD4608B080BDC046FFFF0000F824002094
:10A49000FC24002080B586B000AF78607B681B6824
:10A4A000BB60BB6883F308887B6804331B687B61EF
:10A4B0007B693B610C4B5B68DB05DB0DFB60FB687C
:10A4C000002B0BD0094C094D4668094FF0B400240D
:10A4D000002500260027F0B4064800473B6998474E
:10A4E000BD4606B080BDC04600ED00E0FFFFFFFFA7
:10A4F00000000021F9FFFFFF80B582B000AF786057
:10A50000064A7B68101C191CFFF798F97B68181C19
:10A51000FFF7C0FFBD4602B080BDC0466802020022
:10A52000AADF7047181CC04680B582B000AF021C7D
:10A53000FB1D1A70074AFB1D1B78191C1F230B40BB
:10A54000012199400B1C191C8023D150BD4602B03B
:10A5500080BDC04600E100E080B582B000AF021CC3
:10A56000FB1D1A70074AFB1D1B78191C1F230B408B
:10A57000012199400B1C191CC0235B00D150BD4622
:10A5800002B080BD00E100E044DF7047181CC04607
:10A5900011DF7047181CC04613DF7047181CC046F7
:10A5A00000DF7047181CC04680B500AFBD4680BDB7
:10A5B00080B582B000AF0E4B1B683B6000237B6010
:10A5C00010E07B6801229A40131C1A1C3B68134060
:10A5D00005D07B68DBB25BB2181CFFF7A5FF7B6878
:10A5E00001337B607B681F2BEBD9BD4602B080BD79
:10A5F00000E100E090B593B000AF021CBB1D1A80D3
:10A6000000237B61BB1D1A88564B101C191C05F0DA
:10A61000F7F9031C7B647B6C002B00D09EE0514A51
:10A620001823FB18101C191C04F072FC031C7B641B
:10A630007B6C002B6CD17B6C3B643B6C002B06D09D
:10A640003A6C494B101C5A211A1C00F0AFF9182320
:10A65000FB181B69454A111C10330722081C191CE2
:10A6600005F0DBFC1823FB181969404B07229B18E7
:10A670001022181C05F0D1FC1823FB181A683B4B5C
:10A680001833111C1122181C05F0C7FC1823FB18E5
:10A690001B68364A2A20122112185B180A24101C43
:10A6A000191C221C05F0B9FC304B181CFFF778FF71
:10A6B000031C7B647B6CFB63FB6B002B06D0FA6B8B
:10A6C000294B101C62211A1C00F070F901237B61D8
:10A6D0000823FB1804225A600823FB181422BA1816
:10A6E0009A60204A0823FB18101C191C04F042FB36
:10A6F000031C7B647B6CBB63BB6B002B07D0BA6B0A
:10A70000194B101C69211A1C00F050F926E025E0B5
:10A71000144A164B101C191C04F06CFB031C7B64C0
:10A720007B6C7B637B6B002B06D07A6B0E4B101C13
:10A730006F211A1C00F03AF90C4B181CFFF730FF80
:10A74000031C7B647B6C3B633B6B002B06D03A6B3A
:10A75000054B101C72211A1C00F028F9BD4613B0DD
:10A7600090BDC046402500208C0202000425002038
:10A7700080B588B000AF021CBB1D1A800E23FB18E9
:10A7800008221A80BB1D1988294A0E23FB18081CB1
:10A79000111C1A1C0123FFF7C3FE031CFB61254B90
:10A7A0001B689847B120FFF7EFFE031CFB61FB69B4
:10A7B000BB61BB69002B06D0BA691F4B101C9021EE
:10A7C0001A1C00F0F3F8FFF7E3FE031CFB61FB69C2
:10A7D0007B617B69002B06D07A69174B101C932193
:10A7E0001A1C00F0E3F8154B5B69181CFFF7D4FE48
:10A7F000031CFB61FB693B613B69002B06D03A6996
:10A800000D4B101C96211A1C00F0D0F8BB1D1B88A4
:10A81000181CFFF7EFFE1620FFF79EFEFFF7C8FE9D
:10A82000064B5B69181CFFF767FEBD4608B080BD8C
:10A8300038250020802000208C020200001000102B
:10A8400080B584B000AF786039603B681B78002B1E
:10A8500002D1FEF705FA14E07B68181C01210322DF
:10A86000FFF79EFD031CFB60FB68BB60BB68002B11
:10A8700006D0BA68044B101CB9211A1C00F096F8D7
:10A88000C046BD4604B080BD8C02020080B582B0D7
:10A8900000AF7860024B7A681A60BD4602B080BD96
:10A8A0008020002080B582B000AF7860A023DB0557
:10A8B0007A68C132FF3292000321D150BD4602B006
:10A8C00080BDC04680B582B000AF78600A1CFB1C1A
:10A8D0001A70A023DB05FA1C12789200111C7A680A
:10A8E000C132FF329200D150BD4602B080BDC04699
:10A8F00080B500AF0920FFF7D5FF0B200021FFF73F
:10A90000E1FF164A164B0921D150144A154B0B2171
:10A91000D150124A144B1549D150104A84235B0080
:10A920000021D1500D4A8E235B000021D1500B4AEB
:10A9300092235B000021D150084AA023DB000421B0
:10A94000D150064AC1239B000021D150034B012264
:10A950009A60024B01221A60BD4680BD0020004073
:10A960000C050000140500002405000000509D00A7
:10A9700080B582B000AF021CFB1D1A700949FB1D97
:10A980001B78094A8B50C046064A8E235B00D35879
:10A99000012BF9D1034A8E235B000021D150BD4623
:10A9A00002B080BD002000401C05000080B584B0CE
:10A9B00000AFF860B9607A600C20FFF70DF8054B26
:10A9C000FA681A60044BBA681A60044B7A681A6015
:10A9D00072B6FEE7D4290020D8290020D029002013
:10A9E00080B584B000AF78607B689B68FB607B6853
:10A9F000DA68FB68D31A181CBD4604B080BDC04697
:10AA000080B582B000AF78600A1CFB1C1A707B68AE
:10AA1000181CFFF7E5FF021C7B689B889A4211D83F
:10AA20007B681A687B68DB68796889880B40D31873
:10AA3000FA1C12781A707B68DB685A1C7B68DA6033
:10AA4000002300E00423181CBD4602B080BDC046B0
:10AA500080B582B000AF786039607B68181CFFF762
:10AA6000BFFF031E11D07B681A687B689B687968FA
:10AA700089880B40D3181A783B681A707B689B68EA
:10AA80005A1C7B689A60002300E00523181CBD4611
:10AA900002B080BD80B582B000AF78607B680322D1
:10AAA00013405A425341DBB2181CBD4602B080BD70
:10AAB00080B582B000AF021CFB1D1A70064BFA1D58
:10AAC0001278111C1F220A40012191400A1C1A60B1
:10AAD000BD4602B080BDC04600E100E080B582B056
:10AAE00000AF021CFB1D1A70074AFB1D1B78191CC6
:10AAF0001F230B40012199400B1C191C8023D150AE
:10AB0000BD4602B080BDC04600E100E080B582B025
:10AB100000AF021CFB1D1A70074AFB1D1B78191C95
:10AB20001F230B40012199400B1C191C80235B0043
:10AB3000D150BD4602B080BD00E100E080B582B0DA
:10AB400000AF021CFB1D1A70074AFB1D1B78191C65
:10AB50001F230B40012199400B1C191CC0235B00D3
:10AB6000D150BD4602B080BD00E100E0B0B582B07A
:10AB700000AF021C3960FB1D1A70FB1D1B787F2B78
:10AB80002FD92D4CFB1D1B781A1C0F231340083B9B
:10AB90009908294AFB1D1B78181C0F230340083B0A
:10ABA0009B0806339B00D3185B68FA1D1278101CB3
:10ABB00003220240D200101CFF228240D2431A40DE
:10ABC0003B689B01FF200340F81D0078051C032013
:10ABD0002840C00083401A438B1D9B00E3185A6035
:10ABE00026E0164CFB1D1B785BB29B081349FA1D2F
:10ABF000127852B29208C03292005258F91D097868
:10AC0000081C03210140C900081CFF218140C943E1
:10AC100011403A689201FF200240F81D0078051C9F
:10AC200003202840C00082400A43C0339B001A51D1
:10AC3000BD4602B0B0BDC04600ED00E000E100E05E
:10AC400080B582B000AF021CFB1D1A70FB1D1B7883
:10AC50007F2B16D9164AFB1D1B78191C0F230B409E
:10AC6000083B9B0806339B00D3185B68FA1D1278DB
:10AC7000111C03220A40D200D340FF2213409B093B
:10AC800011E00C4AFB1D1B785BB29B08C0339B0094
:10AC90009B58FA1D1278111C03220A40D200D3409F
:10ACA000FF2213409B09181CBD4602B080BDC04660
:10ACB00000ED00E000E100E080B582B000AF0C4B99
:10ACC0005B68DB05DB0D7B607B68002B0BD07B6852
:10ACD000103B3B603B68DBB25BB2181CFFF7B0FF78
:10ACE000031CDBB200E00423181CBD4602B080BD8B
:10ACF00000ED00E080B582B000AF78600549A12387
:10AD0000DB007A68CA5011200321FFF72FFFBD46F0
:10AD100002B080BD0010014080B582B000AF16497E
:10AD2000D1239B0080225202CA501349C1239B00A9
:10AD300080225202CA501120FFF700FF1120FFF7B6
:10AD4000B7FE0D4B01221A602F237B607B68181C15
:10AD50000138C046C046C046C046C046C046C04690
:10AD6000C046C046C046C046C046F1D1034B012292
:10AD70001A70BD4602B080BD001001406C25002055
:10AD800080B582B000AF1120FFF7A8FE1F49D22383
:10AD90009B0080225202CA501C49C2239B00802281
:10ADA0005202CA50194B01225A602F233B603B6864
:10ADB000181C0138C046C046C046C046C046C04602
:10ADC000C046C046C046C046C046C046F1D10F4B43
:10ADD00001229A600E4B00221A602F237B607B6851
:10ADE000181C0138C046C046C046C046C046C046D2
:10ADF000C046C046C046C046C046C046F1D1054B1D
:10AE000000221A70BD4602B080BDC046001001404D
:10AE1000582500206C25002080B500AF024A034B66
:10AE2000D358181CBD4680BD001001400405000029
:10AE300080B582B000AF786039607A683B68D31A19
:10AE40001B021B0A181CBD4602B080BD80B582B033
:10AE500000AF78600349A823DB007A68CA50BD467A
:10AE600002B080BD0010014080B586B000AF7860B0
:10AE70004C4B19687A68131CDB009B189B00CB189D
:10AE8000BB60494B1B68013303D1474B7A681A609A
:10AE900084E0BB685968434B1868434B1A68131C1D
:10AEA000DB009B189B00C3185B6899421ED83D4B82
:10AEB00019683D4B1A68131CDB009B189B00CA18CD
:10AEC000384B1868384B19680B1CDB005B189B006B
:10AED000C3185968BB685B68CB1A5360324B1A6859
:10AEE000BB681A62304B7A681A6057E0BB685B68CF
:10AEF000FB602D4B1B687B612B4B1B683B6117E094
:10AF0000284B19683A69131CDB009B189B00CB186F
:10AF10005B68FA68D31AFB603B697B61214B196857
:10AF20003A69131CDB009B189B00CB181B6A3B6122
:10AF30003B6901330BD01B4B19683A69131CDB00CA
:10AF40009B189B00CB185A68FB689A42D8D33B6980
:10AF5000013313D0134B19683A69131CDB009B189B
:10AF60009B00CA180F4B186839690B1CDB005B1873
:10AF70009B00C3185968FB68CB1A5360BB68FA681A
:10AF80005A60BB683A691A62064B19687A69131CE1
:10AF9000DB009B189B00CB187A681A62BD4606B08E
:10AFA00080BDC046482500205425002080B586B0CD
:10AFB00000AF78603D4B1B687B617B693B6110E0B3
:10AFC0003A697B689A4200D10EE03B697B61384B5D
:10AFD00019683A69131CDB009B189B00CB181B6A8D
:10AFE0003B613B690133EBD13B69013300D159E04F
:10AFF0007A693B699A4218D12D4B19682B4B1A6814
:10B00000131CDB009B189B00CB181A6A274B1A6095
:10B01000264B1B68013308D1264B01229A60264B30
:10B0200000221A60254B01221A70214B19683A69D7
:10B03000131CDB009B189B00CB185B68FB601C4B50
:10B0400019687A69131CDB009B189B00CA18184BFF
:10B05000186839690B1CDB005B189B00C3181B6A5E
:10B060001362134B19687A69131CDB009B189B0051
:10B07000CB181B6A3B613B69013313D00C4B196839
:10B080003A69131CDB009B189B00CA18084B186810
:10B0900039690B1CDB005B189B00C3185968FB68FF
:10B0A000CB185360BD4606B080BDC0465425002075
:10B0B0004825002000100140582500206D25002063
:10B0C00080B500AF1120FFF721FDBD4680BDC04611
:10B0D00080B500AF1420FFF719FDBD4680BDC04606
:10B0E00080B584B000AF7860134B1B68002B1AD07A
:10B0F000114B1A687B6899697B68DB69081C191C0D
:10B100009047031CFB60FB68BB60BB68002B09D049
:10B11000B968B3235A00094B081C111C1A1CFFF70D
:10B1200045FC06E005E07B689A697B68DB69181CD2
:10B130009047BD4604B080BD68250020B0020200E3
:10B1400080B584B000AF2B4B1B6801334FD0002378
:10B150007B60FFF761FE021C274B1B68101C191C4B
:10B16000FFF766FE031CBB60224B1B68FB601FE001
:10B17000224B1968FA68131CDB009B189B00CB1844
:10B180003B603B685A68BB689A4200D913E03B6851
:10B190005B68BA68D31ABB603B685B687A68D3188F
:10B1A0007B603B681B6AFB603B68181CFFF798FFDD
:10B1B000FB680133DCD1124B1A78124B1B789A4290
:10B1C0000CD1104B1B780133DAB20E4B1A700D4BB9
:10B1D0001B78022B02D10B4B00221A70094B1B78F3
:10B1E0001A1C094B92007968D150FFF771FFBD46D8
:10B1F00004B080BD5425002058250020482500209B
:10B2000064250020652500205C25002080B582B0E3
:10B2100000AF7860184B1A78184B1B789A4223D0ED
:10B22000154B1B780133DAB2134B1A70124B1B7893
:10B23000022B02D1104B00221A700F4B1B781A1CE4
:10B240000F4B9200D2587B681A607B681A680D4BCE
:10B250001B68D2180B4B1A600A4B1B681B021A0A98
:10B26000084B1A60012303E07B6800221A60002368
:10B27000181CBD4602B080BD642500206525002055
:10B280005C2500205825002080B586B000AF424BD9
:10B290001B683B611723FB18404A12781A7066E05E
:10B2A0003F4B1A681723FB181B78DB00D318FB6091
:10B2B0001623FB18FA6812781A7051E0FB68596877
:10B2C0001623FB181A78131C5B009B18DB00CB18A5
:10B2D000BB601623FB181A781623FB1801321A706C
:10B2E000FB689B781622BA1812789A4203D116236B
:10B2F000FB1800221A70BB681B78022B02D0032BAC
:10B3000028D02CE0274B1968BB685A68131CDB0057
:10B310009B189B00CB187B607B681B7D002B07D0A4
:10B32000BB685B68181CFFF741FE7B6800221A753A
:10B3300016E01C4B1968184B1A68131CDB009B188D
:10B340009B00CB183B603B6800221A753B681A6A69
:10B35000114B1A60104B1B680133EAD100E0C04664
:10B36000FB685B781622BA1812789A42A6D1172386
:10B37000FB181B781722BA18591E1170002B8FD199
:10B38000054B1A683B69D31A5A1E9341DBB2181C4D
:10B39000BD4606B080BDC046542500204C25002087
:10B3A000502500204825002080B588B000AFF86007
:10B3B000B9607A600023FB6142E0254B1968254B98
:10B3C0001A68131CDB009B189B00CB18BB61BB6980
:10B3D0005A68FB689A4206D9BB695A68FB68D21A58
:10B3E000BB695A6030E0BB695B68FA68D31AFB60DE
:10B3F000BB695B68FA69D318FB61BB6900225A60BC
:10B40000BB6900221A75134B1B687B61BB691A6A02
:10B41000104B1A60BB691B69002B11D0BA68FB691D
:10B42000D3181B021A0ABB699A60BB691A69BB6907
:10B43000DA607B681A68BB691A627B687A691A608D
:10B44000044B1B680133B8D1BD4608B080BDC0466F
:10B45000482500205425002080B58AB000AF7860D0
:10B46000664B1B68BB612723FB18654A12781A706C
:10B47000AEE0644B1A682723FB181B78DB00D31857
:10B480007B619AE07B6801330ED07B683B625E4B48
:10B4900019683A6A131CDB009B189B00CB18FB61F0
:10B4A000FB691B6A7B6045E07B695A687B691B7896
:10B4B000191C0B1C5B005B18DB00D3183B617B691C
:10B4C0001B780133DAB27B691A707B691A787B6961
:10B4D0009B789A4202D17B6900221A703B695B68B3
:10B4E0003B62494B19683A6A131CDB009B189B00AE
:10B4F000CB18FB613B691B78012B03D1FB691B7DDA
:10B50000002B00D059E03B699A68FB699A603B695F
:10B51000DA68FB69DA603B691A69FB691A613B69A1
:10B520005A69FB69DA61394B1B78002B02D0FB6941
:10B5300000229A60FB699A68354B1B68D31A1B027C
:10B540001B0A344A93420ED8FB699A68304B1B6839
:10B55000101C191CFFF76CFC021CFB69DB68D2187D
:10B56000FB695A6018E02A4B1A68FB699B68101C3B
:10B57000191CFFF75DFC031CFB60FB69DA68FB68C4
:10B580009A4206D9FB69DA68FB68D21AFB695A60ED
:10B5900002E0FB6900225A60FB6900229A60FB69A5
:10B5A0000022DA60FB6901221A75FB69012252420E
:10B5B0001A623B6A181CFFF757FC7B68013300D006
:10B5C00060E77B691A787B695B789A4200D059E71B
:10B5D0002723FB181B782722BA18591E1170002B3D
:10B5E00000D046E7054B1A68BB69D31A5A1E93412F
:10B5F000DBB2181CBD460AB080BDC04654250020F1
:10B600004C25002050250020482500206D250020D5
:10B6100058250020FEFF7F0090B589B000AF78600C
:10B620002A4B1B6801334CD0294B1968274B1A68E9
:10B63000131CDB009B189B00CB185B68FB61FFF7BA
:10B64000EBFB031CBB61234B1B687B61BA697B6905
:10B65000101C191CFFF7ECFB031C03333B611E4B52
:10B660001B7801225340DBB2002B01D0FFF754FBC3
:10B67000FA693B69934200D2131C7A69D3187B6143
:10B680007B691B021B0A7B617B69181CFFF7DEFBD1
:10B69000FFF7C2FB031CFB60FA68BB69101C191C96
:10B6A000FFF7C6FB031CDC1C7A69BB69101C191C64
:10B6B000FFF7BEFB031C9C4202D9FFF701FD02E02D
:10B6C00001E0FFF75DFBBD4609B090BD54250020A9
:10B6D00048250020582500206C25002090B587B013
:10B6E00000AF01235B427B601E4B1B683B611E4B1E
:10B6F0001B68FB600B23FC183B1C181CFFF786FD26
:10B70000031C23701723FC18FFF7BEFD031C2370D6
:10B710000B23FB181B78002B0BD039683A693B1DB3
:10B72000081C111C1A1CFFF73FFE1723FB180122EF
:10B730001A707B68181CFFF78FFE031E03D01723B7
:10B74000FB1801221A701723FB181B78002B03D05B
:10B75000FB68181CFFF760FF044B00221A70BD46FF
:10B7600007B090BD58250020542500206D250020ED
:10B7700080B582B000AF786039603B68DAB27B6830
:10B780005A70BD4602B080BD80B584B000AF78600D
:10B7900039607B685B780133FB607B689B781A1E9D
:10B7A000FB689A4201D10023FB607B681B781A1E5C
:10B7B000FB689A4201D100230EE03B68FA681A60E8
:10B7C0007B685A687B685B78191C0B1C5B005B18F4
:10B7D000DB00D318BB60BB68181CBD4604B080BD3D
:10B7E00080B586B000AFF860B9607A603B601B4BF3
:10B7F0001A68FB68DB00D2181023FB18101C191CF8
:10B80000FFF7C2FF031C7B617B69002B01D104237E
:10B8100020E07B6901221A707B69BA685A60FFF7E1
:10B82000FBFA021C7B699A607B697A68DA607B6943
:10B830003A681A617B693A6A5A61084B1A68FB6870
:10B84000DB00D2183B69101C191CFFF791FFFFF7B2
:10B850003FFC0023181CBD4606B080BD50250020CB
:10B8600080B584B000AF78603960144B1A687B688B
:10B87000DB00D2180823FB18101C191CFFF784FFEB
:10B88000031CFB60FB68002B01D1042312E0FB6862
:10B8900002221A70FB683A685A60084B1A687B6883
:10B8A000DB00D218BB68101C191CFFF761FFFFF703
:10B8B0000FFC0023181CBD4604B080BD502500209D
:10B8C00080B500AF104AA0235B000021D1500E4A82
:10B8D000A2235B000021D1500B4AA4235B0000216E
:10B8E000D150094AA6235B000021D150064A80238B
:10B8F0005B000021D150044A82235B000021D1501B
:10B90000FFF71EFCBD4680BD0010014080B500AFB2
:10B91000FFF7E4FEBD4680BD80B586B000AFF8609D
:10B92000081C111C7B600B23FB18021C1A700A23D5
:10B93000FB180A1C1A707B68181CFFF7ABF8031C75
:10B940001A1C01235340DBB2002B01D007238BE0EC
:10B950007B68002B01D1072386E0FFF711FA444BE7
:10B960003A6A1A60434B0B22BA1812781A70424B8B
:10B970007A681A6000237B6116E03F4B19687A6988
:10B98000131CDB009B189B00CB1800221A703A4B4B
:10B9900019687A69131CDB009B189B00CB180022E6
:10B9A0001A757B6901337B610B23FB181A787B695D
:10B9B0009A42E2DC0B23FB181A78131CDB009B185D
:10B9C0009B001A1C7B689B187B602C4B03221A700F
:10B9D0002B4B7A681A607B6818337B6000237B618D
:10B9E00021E0274B1A687B69DB00D3183B613B6978
:10B9F00000221A703B6900225A703B690A22BA1869
:10BA000012789A703B697A685A600A23FB181A7890
:10BA1000131C5B009B18DB001A1C7B689B187B6067
:10BA20007B6901337B617B69022BDADD154B0122D7
:10BA300052421A60144B00221A70144B00221A70E2
:10BA40001420FFF77BF814200321FFF78FF8142050
:10BA5000FFF72EF8FB68181CFFF74CF9FFF7DCF92D
:10BA6000021C0B4B1A600023181CBD4606B080BD9B
:10BA70006825002044250020482500204C25002072
:10BA80005025002054250020642500206525002035
:10BA90005825002080B586B000AFF8607A600B238F
:10BAA000FB180A1C1A70284B1B68002B01D10823B5
:10BAB00046E07B68002B01D1072341E0FB68002BA7
:10BAC00001D107233CE000237B6132E01E4B196863
:10BAD0007A69131CDB009B189B00CB181B78002B8A
:10BAE00024D1194B19687A69131CDB009B189B0041
:10BAF000CB1801221A70144B19687A69131CDB00E9
:10BB00009B189B00CB180B22BA1812785A700E4B58
:10BB100019687A69131CDB009B189B00CB187A68A4
:10BB20009A617A69FB681A60002309E07B69013336
:10BB30007B61064B1B781A1E7B699A42C6DC042384
:10BB4000181CBD4606B080BD4825002044250020B5
:10BB500080B582B000AFFFF7AFF8031E012B02D013
:10BB6000032B03D005E000237B6005E001237B600D
:10BB700002E002237B60C0467B68181CBD4602B011
:10BB800080BDC04690B589B002AFF860B9607A60F8
:10BB90001D4B1B68002B01D1082331E01B4B1B7888
:10BBA0001A1EFB689A4202D9BB68042B01D80723EE
:10BBB00026E0154B1968FA68131CDB009B189B00E4
:10BBC000CB181B78012B01D0082319E00E4B196804
:10BBD000FA68131CDB009B189B00CB185B78012BC9
:10BBE00001D1BB6800E000237B61FFF7B1FFF9687A
:10BBF000BA687C697B680093231CFFF7F1FD031C86
:10BC0000181CBD4607B090BD4825002044250020E3
:10BC100080B582B000AF7860134B1B68002B01D158
:10BC200008231DE0114B1B781A1E7B689A4201D82D
:10BC3000072315E00C4B19687A68131CDB009B186E
:10BC40009B00CB181B78012B01D0082308E0FFF7DD
:10BC50007FFF021C7B68101C191CFFF701FE031CF0
:10BC6000181CBD4602B080BD482500204425002098
:10BC700080B582B000AF78607B68032213405A42DF
:10BC80005341DBB2181CBD4602B080BD80B582B006
:10BC900000AF021CFB1D1A70FB1D1B789AB2074BEC
:10BCA0001B889A4204D2FB1D1B780133DBB200E0F3
:10BCB0000023181CBD4602B080BDC0467C25002074
:10BCC00080B582B000AFFB1D074A12781A70074B8F
:10BCD0001B78DBB2FA1D1278D31A5A425341DBB2F9
:10BCE000181CBD4602B080BD7825002079250020B3
:10BCF00080B584B000AF3A60BB1D021C1A803B1DAA
:10BD00000A1C1A803B1D1B8801339AB20E23FB18B4
:10BD1000D2001A803B68181CFFF7AAFF031C1A1CEC
:10BD200001235340DBB2002B01D0072318E00E4B58
:10BD30003A681A600E23FB181B883A68D2180B4B1E
:10BD40001A600B4B00221A700A4B00221A700A4B21
:10BD5000BA1D12881A80094B3A1D12881A800023D6
:10BD6000181CBD4604B080BD70250020742500203D
:10BD700079250020782500207A2500207C250020C8
:10BD800080B586B000AFF860B9607A6005237B614A
:10BD9000FFF796FF031E30D11A4B1B78DAB212233D
:10BDA000FB181A80174B1B78DBB2181CFFF76EFFCD
:10BDB000031C1A1C134B1A70134B1B681222BA185F
:10BDC0001288124909884A439A18FB681A60104B76
:10BDD0001A681223FB181B88DB00D3189A88BB68EB
:10BDE0001A800B4B1A681223FB181B88DB00D31830
:10BDF0001A687B681A6000237B617B69181CBD464A
:10BE000006B080BD78250020742500207A2500200A
:10BE10007025002080B584B000AF07E07B68F9682A
:10BE20000A22BA181288081C111C98470C23F9180A
:10BE30000A23FA183B1D081C111C1A1CFFF7A0FF4F
:10BE4000031EEBD0BD4604B080BDC04629DF70475D
:10BE5000181CC04628DF7047181CC04680B582B049
:10BE600000AF78607B68032213405A425341DBB233
:10BE7000181CBD4602B080BD80B582B000AF7860AE
:10BE80001D497A68131C9B009B189B00CB1800224D
:10BE90001A7119497A68131C9B009B189B00CB18D8
:10BEA0000022DA8014497A68131C9B009B189B00BF
:10BEB000CB18083302225A600F497A68131C9B0082
:10BEC0009B189B00CB18083300229A600A497A68B5
:10BED000131C9B009B189B00CB18103300225A6048
:10BEE00005497A68131C9B009B189B00CB18002205
:10BEF0001A81BD4602B080BD8025002080B582B089
:10BF000000AF0F4B00221A800E4B00221A700E4B0E
:10BF100000221A700C4B00225A700B4B00229A70B0
:10BF200000237B6006E07B68181CFFF7A5FF7B6899
:10BF300001337B607B681D2BF5D9BD4602B080BD07
:10BF4000E4270020E72700208025002080B586B068
:10BF500000AFB9607A60191C0F23FB18021C1A701D
:10BF60000C23FB180A1C1A801323FB1800221A70DA
:10BF7000424B5B781E2B00D179E0404B19783F4B48
:10BF80005A781323FB188A181A701323FB181B788E
:10BF90001D2B06D91323FB181322BA1812781E3A48
:10BFA0001A701323FB181A783449131C9B009B1832
:10BFB0009B000F22BA18CB1812781A711323FB18A2
:10BFC0001A782E49131C9B009B189B00CB1800224B
:10BFD0005A711323FB181A782849131C9B009B18CD
:10BFE0009B00CB1810337A685A601323FB181A7819
:10BFF00022490820131C9B009B189B00CB181B1880
:10C00000BA68043303CA03C31323FB181A781B4905
:10C01000131C9B009B189B000C22BA18CB1812888B
:10C02000DA801323FB181A781449131C9B009B1801
:10C030009B002022BA18CB1812881A8100237B613A
:10C040000E4B9B7801225340DBB2002B08D000F04E
:10C0500011FB031C7B617B69112B01D100237B61E8
:10C06000064B5B780133DAB2044B5A7001E00423CB
:10C070007B617B69181CBD4606B080BD8025002011
:10C0800080B582B000AF00237B600E4B5B78002B45
:10C0900012D00C4B9B7801225340DBB2002B0BD00B
:10C0A00000F0E8FA031C7B607B68002B04D07B68FF
:10C0B000112B01D100237B607B68181CBD4602B0A8
:10C0C00080BDC04680250020B0B586B002AF786044
:10C0D00039600F23FB183A6812781A703B689A6827
:10C0E0000C4B1201D358BB603B680833191C3B68EA
:10C0F0001D693B685B88181C0F23FB181A787B6846
:10C100000090BC68081C111C1A1C2B1CA047BD46C3
:10C1100004B0B0BDE827002080B586B000AF7860DD
:10C1200000237B61994B9B78002B00D12AE1974B30
:10C1300000229A70964B1B78082B21D17B68022B2A
:10C1400003D1934B00221A7002E0924B00221A7026
:10C15000FFF796FF031C7B617B69002B0FD08B4B95
:10C160001B781A1C131C9B009B189B00874A9B186A
:10C1700004337A69101C191CFFF7A6FF02E101E1E4
:10C180007B68022B03D0032B00D1C5E0FAE07F4B84
:10C190001B781A1C131C9B009B189B007B4A9B1846
:10C1A00004333B617C4B1B8801339AB27A4B1A8073
:10C1B0003B691B78022B08D1774B1B889B023A699D
:10C1C0005288934201DB012200E000220F23FB187A
:10C1D0001A701A7801210A401A703B691B78052BE6
:10C1E00005D16B4B1B78072B01D1012200E0002207
:10C1F0000E23FB181A701A7801210A401A703B6945
:10C200001B78042B05D1624B1B78072B01D101222F
:10C2100000E000220D23FB181A701A7801210A4051
:10C220001A703B691B78042B0CD15B4B1B889B025B
:10C230003A695288934205DB554B1B78002B01D19C
:10C24000012200E000220C23FB181A701A78012149
:10C250000A401A700E23FB181B78002B0ED10D23F9
:10C26000FB181B78002B09D10C23FB181B78002B23
:10C2700004D10F23FB181B78002B35D00B23FB18A0
:10C28000424A12781A70424B00221A70424B002226
:10C290001A803E4B5B78013BDAB23C4B5A703B4B09
:10C2A0001B780133DAB2394B1A70384B1B781D2BCF
:10C2B00005D9364B1B781E3BDAB2344B1A700B2370
:10C2C000FB181A78131C9B009B189B002F4A9B1885
:10C2D00004337A69101C191CFFF7F6FE0B23FB18B8
:10C2E0001B78181CFFF7C8FDFFF7CAFE031C7B6113
:10C2F0007B69002B0FD0254B1B781A1C131C9B004D
:10C300009B189B00214A9B1804337A69101C191C46
:10C31000FFF7DAFE36E035E01C4B1B781A1C131CC5
:10C320009B009B189B00194A9B1804333B613B6997
:10C330005B780133DAB23B695A703B695B78032B57
:10C340000ED1124B1B781A1C131C9B009B189B00D0
:10C350000E4A9B1804330D20191CFFF7B5FE10E0A0
:10C3600000F088F9031C7B617B69002B09D07B6995
:10C37000112B06D07A693B69101C191CFFF7A4FE2B
:10C38000FFE7C046BD4606B080BDC0468025002000
:10C39000E7270020E6270020E427002090B587B09B
:10C3A00000AFF860B9607A603B6003237B61AE4BFD
:10C3B0001B78002B0CD17B68002B06D13B68002B2F
:10C3C00003D1A94B02221A7002E0A74B01221A7076
:10C3D000A54B1B78062B00D93FE19A00A34BD3183D
:10C3E0001B689F46A24B5B6901330CD0A04B5A6976
:10C3F00080235B051B699BB2101C191C03F07CFC9D
:10C40000031C1A1C02E080235B055A6980235B052C
:10C410001B699BB25343191C80235B051B699BB2AC
:10C420001A1CBB6853431A1C80235B051B699BB213
:10C430009B089BB2081C111C1A1CFFF707FD031C6C
:10C440007B617B69002B03D1874B02221A7005E1C7
:10C4500004E1BB68181CFFF7FDFC031C7B617B69D2
:10C46000002B19D17B68002B12D13B68002B0BD11C
:10C47000FB681B78042B03D17B4B07221A700BE05F
:10C48000794B05221A7007E0774B04221A70E5E019
:10C49000754B03221A70E1E0E0E080235B051B6925
:10C4A0009BB21A1CBB6853431C1C714B5B69013364
:10C4B0000CD06F4B5A6980235B051B699BB2101C23
:10C4C000191C03F019FC031C1A1C02E080235B05F5
:10C4D0005A6980235B051B699BB253431A1C7B6816
:10C4E000201C111C1A1CFFF7B1FC031C7B617B692B
:10C4F000002B12D13B68002B0BD1FB681B78042B5F
:10C5000003D1594B06221A7007E0574B05221A70C7
:10C51000A4E0554B04221A70A0E09FE080235B0545
:10C520001B699BB21A1CBB685A437B689B00D318DB
:10C53000FA6852889B181C1C4D4B5B6901330CD068
:10C540004B4B5A6980235B051B699BB2101C191C5D
:10C5500003F0D2FB031C1A1C02E080235B055A691E
:10C5600080235B051B699BB25A437B689B00D318F1
:10C57000FA6852889B181A1C3B68201C111C1A1C54
:10C58000FFF764FC031C7B617B69002B0BD1FB680C
:10C590001B78042B03D1344B06221A7003E0324B74
:10C5A00005221A705AE059E080235B051B699BB293
:10C5B0001A1CBB685A437B689B00D318191CFB6884
:10C5C0001A69FB685B889B089BB2081C111C1A1C2B
:10C5D000FFF73CFC031C7B617B69002B0DD17B6862
:10C5E000002B06D13B68002B03D11F4B07221A708A
:10C5F00003E01D4B06221A7030E02FE01C4B5B69F4
:10C6000001330CD01A4B5A6980235B051B699BB21E
:10C61000101C191C03F070FB031C1A1C02E0802381
:10C620005B055A6980235B051B699BB25A438023D3
:10C630005B051B699BB2101C191C03F05DFB031CFE
:10C64000181CFFF707FC031C7B617B69002B03D1DF
:10C65000054B07221A7001E000E0C0467B69181CF8
:10C66000BD4607B090BDC046E7270020E4020200A7
:10C670000010001080B58EB000AF0F237B637E4B9F
:10C680001B781A1C131C9B009B189B007A4A9B1852
:10C6900004333B633B6BDB68FB623B6B1B78042B17
:10C6A0003AD0052B00D1A7E0022B00D0D8E03B6B9D
:10C6B0001B69BB62714B1B889B027B623B6B5B8877
:10C6C0001A1C7B6AD31A3B62BA6A7B6AD318BB62B4
:10C6D0003B6B9B881A1C7B6AD318FA6AD318FB62DF
:10C6E0003B6A674A93420BD8F96A3B6A9B08BA6A6D
:10C6F000081C111C1A1CFFF7A9FB031C7B63AFE08D
:10C70000F96ABA6A80235B00081C111C1A1CFFF727
:10C710009DFB031C7B63A3E03B6B9A681E23FB1805
:10C72000584912018A18083212881A803B6B9A689D
:10C730001C23FB18534912018A18083252881A80A8
:10C740003B6B9B684F4A1B01D3185B68BB61BA699E
:10C75000FB6A9A420AD11E23FB181B881C22BA18B6
:10C76000128853433A6B5288934203D03B6B9B68C9
:10C77000032B14D180235B051B699BB2F86A191C3B
:10C7800003F0BAFA031C1A1C3C4B1B88D3187B61BC
:10C790007B69181CFFF75EFB031C7B6360E0802352
:10C7A0005B051B699BB2F86A191C03F0A5FA031C10
:10C7B0007B6180235B051B699BB21A1C7B69534319
:10C7C000FA6AD31A9B083B617B695A1C80235B057C
:10C7D0001B699BB25A433B6B5B88191CFB6ACB18E5
:10C7E000D31A9B08FB60386B79693A69FB68FFF7DD
:10C7F000D5FD031C7B6333E080235B051B699BB283
:10C80000F86A191C03F078FA031CBB603B6B9B8829
:10C810001A1CFB6AD21880235B051B699BB2191C8A
:10C82000BB684B43D31A9B087B60BB685A1C8023B0
:10C830005B051B699BB25A433B6B9B88191CFB6AC7
:10C84000CB18396B49885B18D31A9B083B60386B4F
:10C85000B9687A683B68FFF7A1FD031C7B63C0469B
:10C860007B6B002B02D1044B01229A707B6B181C4E
:10C87000BD460EB080BDC04680250020E4270020C4
:10C88000FF030000E827002080B582B000AFFFF76B
:10C8900035FB3E4B00221A803D4B5B6901330CD0C7
:10C8A0003B4B5A6980235B051B699BB2101C191C0A
:10C8B00003F022FA031C023B03E080235B055B6963
:10C8C000023B80225205126992B25A43314B1A60E0
:10C8D000314B00221A8000237B601CE02F4B7A68CA
:10C8E00012010021D1502D4A7B681B01D318083357
:10C8F00000221A80294A7B681B01D31808330022C2
:10C900009A80264A7B681B01D318083300225A807C
:10C910007B6801337B607B68012BDFD9204B0822C9
:10C920001A701B4B5B6901330CD0194B5A69802379
:10C930005B051B699BB2101C191C03F0DDF9031C7D
:10C940001A1C02E080235B055A6980235B051B6982
:10C950009BB25A4380235B051B699BB2101C191CB8
:10C9600003F0CAF9031C181CFFF774FA031C3B60A0
:10C970003B68002B05D10B4B01229A700A4B012218
:10C980001A703B68181CBD4602B080BDDC27002031
:10C9900000100010E0270020E4270020E8270020F6
:10C9A000E727002080250020E627002090B585B0ED
:10C9B00000AF78603960794B1B7801225340DBB2BD
:10C9C000002B01D00823E4E07B68002B01D10E236B
:10C9D000DFE03B68002B01D10E23DAE07B681B68A7
:10C9E000002B01D10E23D4E07B689A8880235B055D
:10C9F0001B699BB29A4203D87B689B880F2B01D896
:10CA00000723C6E07B68DB88002B3ED07B68DB8891
:10CA10001A1C7B689B8853431A1C614B1B68D418F3
:10CA2000604B5B6901330CD05E4B5A6980235B0518
:10CA30001B699BB2101C191C03F05EF9031C1A1C25
:10CA400002E080235B055A6980235B051B699BB26A
:10CA500053439C4219D87B68DB881A1C7B689B88EF
:10CA60005A4380235B051B699BB29A420FDD8023EA
:10CA70005B051B699AB27B689B88101C191C03F02C
:10CA8000C1F90B1C9BB2002B01D0072381E07B680E
:10CA90009B88032213409BB2002B01D0072378E030
:10CAA000414B1B88022B01D1042372E03E4B1B88B3
:10CAB0001A1C3B681A603A4B1A683B685A603A4B3A
:10CAC0001B88181C3B685A6838490301CB185A6008
:10CAD000354B1B881A1C7B681968344B1201D150E6
:10CAE000314B1B88181C7B689988304A0301D31886
:10CAF00008330A1C1A802C4B1B88181C7B68D988A9
:10CB00002A4A0301D31808330A1C5A800E23FB1843
:10CB100000221A807B689B881A1C7B68DB88534341
:10CB2000BB600E23FB181A880E23FB1801321A80F3
:10CB300080235B051B699BB21A1EBB689A4208D210
:10CB400080235B051B699BB21A1CBB689B1ABB60E8
:10CB500001E00023BB6080235B051B699BB21A1CAC
:10CB60000F4B1B68D2180E4B1A60BB68002BD8D134
:10CB70000D4B1B880D4A1B01D31808330E22BA181F
:10CB800012889A80084B1B8801339AB2064B1A8090
:10CB90000023181CBD4605B090BDC046E627002006
:10CBA000E027002000100010DC270020E8270020EC
:10CBB00090B587B000AFF8607A600A23FB180A1CB2
:10CBC0001A80314B1B7801225340DBB2002B01D07D
:10CBD000082354E0FB68002B01D10E234FE07B6853
:10CBE000002B01D10E234AE0FB681B68012B06D8FD
:10CBF000FB681A68254B1201D358002B01D107237B
:10CC00003DE01023FB18FA6803CA03C31023FB1886
:10CC10005A680A23FB181988FB681B681B481B010C
:10CC2000C31808331B884B43D2181023FB185A60D3
:10CC30001023FB185A681023FB181B6813491B01AB
:10CC4000CB1859681023FB181B6810481B01C31828
:10CC500008335B881C1C1023FB181B680B481B0146
:10CC6000C31808331B886343CB189A4201D30723A8
:10CC700005E07B681022BA1803CA03C30023181CFE
:10CC8000BD4607B090BDC046E6270020E82700203B
:10CC900090B587B002AFF860B960191CBB1D1A804F
:10CCA0003B1D0A1C1A804A4B1B7801225340DBB201
:10CCB000002B01D0082387E0BB68002B01D10E2395
:10CCC00082E0FB68002B01D10E237DE0FB681B682E
:10CCD000012B06D8FB681A683E4B1201D358002B73
:10CCE00001D1072370E0FB685A68FB681B6839496B
:10CCF0001B01CB185968FB681B6836481B01C31819
:10CD000008335B881C1CFB681B6832481B01C31876
:10CD100008331B886343CB189A4201D3072353E09F
:10CD2000BB1D1B88002B0AD0FB681B68294A1B010E
:10CD3000D31808331B88BA1D12889A4201D90723D9
:10CD400042E0BB1D1A883B1D1B88D218FB681B687C
:10CD500020491B01CB1808331B889A4201DD0723A9
:10CD600032E0BB68181CFFF779F8031C1A1C01237A
:10CD70005340DBB2002B0BD13B1D1B88181CFFF767
:10CD80006DF8031C1A1C01235340DBB2002B01D0A9
:10CD9000102319E0FB685B68181CFFF75FF8031CA1
:10CDA0001A1C01235340DBB2002B01D010230BE0EF
:10CDB000F968BA68BB1D1C883B1D1B8800930220C4
:10CDC000231CFFF7C3F8031C181CBD4605B090BD1B
:10CDD000E6270020E827002090B587B002AFF86072
:10CDE000B960191CBB1D1A803B1D0A1C1A804A4BD6
:10CDF0001B7801225340DBB2002B01D0082387E0CF
:10CE0000BB68002B01D10E2382E0FB68002B01D10F
:10CE10000E237DE0FB681B68012B06D8FB681A68AF
:10CE20003E4B1201D358002B01D1072370E0FB6861
:10CE30005A68FB681B6839491B01CB185968FB68A5
:10CE40001B6836481B01C31808335B881C1CFB6831
:10CE50001B6832481B01C31808331B886343CB1877
:10CE60009A4201D3072353E0BB1D1B88002B0AD035
:10CE7000FB681B68294A1B01D31808331B88BA1D9D
:10CE800012889A4201D9072342E0BB1D1A883B1D34
:10CE90001B88D218FB681B6820491B01CB1808337C
:10CEA0001B889A4201DD072332E0BB68181CFEF79D
:10CEB000D5FF031C1A1C01235340DBB2002B0BD1FE
:10CEC0003B1D1B88181CFEF7C9FF031C1A1C0123FD
:10CED0005340DBB2002B01D0102319E0FB685B68E4
:10CEE000181CFEF7BBFF031C1A1C01235340DBB2C6
:10CEF000002B01D010230BE0F968BA68BB1D1C8819
:10CF00003B1D1B8800930520231CFFF71FF8031C03
:10CF1000181CBD4605B090BDE6270020E82700207C
:10CF2000B0B586B002AFF860B960191CBB1D1A809D
:10CF30003B1D0A1C1A80534B1B7801225340DBB265
:10CF4000002B01D0082398E0BB68002B01D10E23F1
:10CF500093E0FB68002B01D10E238EE0BB681B68B9
:10CF6000012B06D8BB681A68474B1201D358002B17
:10CF700001D1072381E0BB685A68BB681B6842493E
:10CF80001B01CB185968BB681B683F481B01C318BD
:10CF900008335B881C1CBB681B683B481B01C3181B
:10CFA00008331B886343CB189A4201D3072364E0FC
:10CFB000BB1D1B88002B0AD0BB681B68324A1B01B3
:10CFC000D31808331B88BA1D12889A4201D9072347
:10CFD00053E0BB1D1A883B1D1B88D218BB681B6819
:10CFE00029491B01CB1808331B889A4201DD07230E
:10CFF00043E0FB68181CFEF731FF031C1A1C0123D9
:10D000005340DBB2002B0BD13B1D1B88181CFEF7D5
:10D0100025FF031C1A1C01235340DBB2002B01D057
:10D0200010232AE0BB685B68181CFEF717FF031C7F
:10D030001A1C01235340DBB2002B01D010231CE04B
:10D040003B1D1A88BB685B68D318191CBB1D1B8865
:10D05000FA68101C1A1C02F0E0FFBB681A680A4B41
:10D060001201D458BB1D1B88BA68FD680093101CC0
:10D07000032100222B1CA0470023181CBD4604B02E
:10D08000B0BDC046E6270020E827002090B587B055
:10D0900002AF78600A1CBB1C1A80384B1B78012237
:10D0A0005340DBB2002B01D0082362E07B68002BE9
:10D0B00001D10E235DE07B681B68012B06D87B68DD
:10D0C0001A682F4B1201D358002B01D1072350E0CF
:10D0D0007B685A687B681B6829491B01CB18596813
:10D0E0007B681B6826481B01C31808335B881C1C1F
:10D0F0007B681B6822481B01C31808331B886343E5
:10D10000CB189A4201D3072333E07B685B68181C75
:10D11000FEF7A4FE031C1A1C01235340DBB2002BB4
:10D1200001D0102325E07B685A687B681B6814498E
:10D130001B01CB185B68D11A7B681B68104A1B0166
:10D14000D31808331B88081C191C02F05BFE0B1E49
:10D1500001D007230DE07A68BB1C1C8800230093D4
:10D160000420111C0022231CFEF7F0FE031CFB60B0
:10D17000FB68181CBD4605B090BDC046E6270020E0
:10D18000E827002080B584B000AF78607B689B689A
:10D19000FB607B68DA68FB68D31A181CBD4604B0D4
:10D1A00080BDC04680B500AF074B00221A70074B08
:10D1B0000122DA60054B01225A60044AA023DB00F9
:10D1C0000021D150BD4680BD2C2800200020004009
:10D1D00080B582B000AF084B0122DA60074B012214
:10D1E0001A703B1C03221A70054B1B683A1C101C5A
:10D1F0009847BD4602B080BD002000402C2800208A
:10D200002828002080B582B000AF144B1B78DBB219
:10D21000022B02D0124B01229A60124AFB1D101CF5
:10D22000191CFDF715FC031E02D0FFF7D1FF12E019
:10D230000B4AC2239B008021D150094AFB1D1B7859
:10D24000191C094BD150054B02221A70044AC12304
:10D250009B008021D150BD4602B080BD2C2800200B
:10D2600000200040182800201C05000080B500AFF9
:10D27000064B181CFFF786FF031E02D0FFF7C2FF04
:10D2800001E0FFF7A5FFBD4680BDC046182800207D
:10D2900080B500AF084B1B78DBB2012B02D0022B0C
:10D2A00003D006E0FFF77EFF03E0034B03221A7072
:10D2B000C046BD4680BDC0462C28002080B500AFCA
:10D2C000114B1B78DBB2002B02D0032B15D018E0DA
:10D2D0000E4AA023DB000421D1500C4B01221A601E
:10D2E0000B4B181CFFF74EFF031E02D0FFF78AFFFF
:10D2F00007E0054B01221A7003E0034B02221A706B
:10D30000C046BD4680BDC0462C28002000200040FD
:10D310001828002080B500AF094B1B78DBB2012B29
:10D320000ADB022B05DD032B00D005E0FFF73AFFF7
:10D3300003E0FFF79BFF00E0C046BD4680BDC0464E
:10D340002C28002080B500AF044B1B78DBB2012BEA
:10D3500001D1FFF757FFBD4680BDC0462C280020F5
:10D3600080B500AFFFF71EFFBD4680BD80B582B01F
:10D3700000AF021CFB1D1A70FB1D1B78042B13D879
:10D380009A000B4BD3181B689F46FFF781FF0CE0F8
:10D39000FFF794FF09E0FFF7BDFF06E0FFF7D2FFBC
:10D3A00003E0FFF7DDFF00E0C046BD4602B080BDF0
:10D3B0000003020080B588B000AF354A84235B00CB
:10D3C000D358002B33D0324A84235B000021D15044
:10D3D0002F4AA323DB00D358DBB22E4A101C191CA2
:10D3E000FDF70EFB031CFB61FB69002B0ED0102325
:10D3F000FB1801221A701023FB18FA695A60264B99
:10D400001B681022BA18101C984710E0214B181CFA
:10D41000FFF7B8FE031E012B09D10823FB180022D9
:10D420001A701D4B1B680822BA18101C9847184A1E
:10D430008E235B00D358002B07D0154A8E235B0048
:10D440000021D1500320FFF791FF114A92235B0086
:10D45000D358002B19D00E4A92235B000021D150E3
:10D460000B4A9023DB00D358BB6109499023DB00B2
:10D47000BA69CA503B1C02221A703B1CBA695A6036
:10D48000054B1B683A1C101C9847BD4608B080BD70
:10D4900000200040082800202828002075DF704761
:10D4A000181CC04676DF7047181CC0467ADF7047EC
:10D4B000181CC0467BDF7047181CC04680B582B080
:10D4C00000AF78607B681B789AB27B6801331B7869
:10D4D0001B029BB213439BB29BB2181CBD4602B009
:10D4E00080BDC04690B585B000AF78600E23FC18B3
:10D4F0007B68181CFFF7E2FF031C23800E23FB1838
:10D500001B88012213405A1E9341DBB2181CBD46F2
:10D5100005B090BD80B582B000AF78607B685A8856
:10D52000084B1B889A4207D37B685A88054B5B8857
:10D530009A4201D8012300E00023181CBD4602B026
:10D5400080BDC0464C28002080B586B000AF786012
:10D55000294B1B88294A93424BD0294B1B78013316
:10D56000DAB2274B1A70274B1A7B254B1B789A424D
:10D5700016D3214B1A88244B101C191CFFF78EFF61
:10D58000031C7B617B69002B09D01E4B9B69002B20
:10D5900005D01C4B9B697A69101C984729E028E04C
:10D5A000174B00221A70174B1B7C002B13D0124B09
:10D5B0001B88181C3B21FFF775FF031C3B613B696F
:10D5C000002B08D00F4B9B69002B04D00D4B9B699F
:10D5D0003A69101C98470B4B5B69002B09D00C2350
:10D5E000FB1800221A70074B5B690C22BA18101C3A
:10D5F0009847BD4606B080BD56280020FFFF0000BA
:10D6000054280020302800204C28002090B585B0F8
:10D6100000AF7860214B7A6813CA13C313CA13C3CF
:10D6200012681A601E4B00221A707B681B68002B60
:10D6300015D07B681B681B4A111C1A1C0823081C88
:10D64000111C1A1C02F0E9FC164B181CFFF72EFFE8
:10D65000031CFB60FB68002B0CD0FB6819E0114B2E
:10D66000181CFFF727FF031CFB60FB68002B01D091
:10D67000FB680EE00C4B012252421A800B4B002239
:10D680001A700B4A0B4B101C00211A1CFEF702FAF1
:10D69000031C181CBD4605B090BDC04630280020B4
:10D6A000642800204C280020562800205428002000
:10D6B0006028002049D5010080B584B000AF284B18
:10D6C000181CFFF727FF031C1A1C01235340DBB271
:10D6D000002B33D0234B1B78002B0CD0224B5B69E3
:10D6E000002B2AD03B1D00221A701F4B5B693A1D8C
:10D6F000101C98472EE01D4B1B78002B03D11A4BB2
:10D700005B68FB6002E0184B9B68FB60184B1A6873
:10D71000FB68101C191C0022FEF734FA031CBB60C6
:10D72000BB68002B09D0104B9B69002B05D00E4B1A
:10D730009B69BA68101C98470CE00BE00A4B5B69C8
:10D74000002B07D03B1C01221A70074B5B693A1C67
:10D75000101C9847034B00221A70BD4604B080BDD0
:10D760005828002064280020302800205428002059
:10D770006028002080B582B000AF78607B689A880E
:10D780000B4B1A800B497B6816229B180822081C39
:10D79000191C02F042FC084B00221A70074BDB896F
:10D7A000002B01D1FFF788FFBD4602B080BDC04607
:10D7B0005628002058280020542800203028002017
:10D7C00080B584B000AF78600E4B012252421A80BF
:10D7D0000D4B00221A700D4B1B68181CFEF718FA2F
:10D7E000031CFB60FB68002B08D0094B9B69002BD6
:10D7F00004D0074B9B69FA68101C9847BD4604B0DB
:10D8000080BDC046562800205428002060280020F3
:10D810003028002080B584B000AF78607B68063384
:10D82000FB60FB681A88144BDB899A4220D1FB68A5
:10D830001B8B022B1CD1FB681A33181CFFF752FEFE
:10D84000031E02D0FFF738FF12E00C4B1B68181CB8
:10D85000FEF7DEF9031CBB60BB68002B08D0064B4B
:10D860009B69002B04D0044B9B69BA68101C984735
:10D87000BD4604B080BDC04630280020602800208E
:10D8800080B582B000AF786006497B6806229B189D
:10D890000822081C191C02F0C0FBFFF70DFFBD4653
:10D8A00002B080BD5828002080B582B000AF7860FB
:10D8B0007B681B88112B0DD002DC102B05D018E0E3
:10D8C000122B11D0502B0AD013E07B68181CFFF7E5
:10D8D00051FF0EE07B68181CFFF772FF09E07B68C0
:10D8E000181CFFF797FF04E07B68181CFFF7C8FFC0
:10D8F000C046BD4602B080BD2EDF7047181CC04632
:10D9000032DF7047181CC04633DF7047181CC04612
:10D910004CDF7047181CC04680B500AF0C4B1B781D
:10D920005A1E9341DBB201225340DBB21A1C012381
:10D930001340DAB2064B1A70064B1B68002B05D059
:10D94000044B1B68024A1278101C9847BD4680BDE4
:10D95000652800206828002080B584B000AF3A60B8
:10D96000FB1D021C1A70BB1D0A1C1A70174B3A686B
:10D970001A601520FFF7C4FF031CFB60FB68002B37
:10D9800001D0FB681DE0FB1D1B781520191CFFF75B
:10D99000BBFF031CFB60FB68002B01D0FB6810E0A1
:10D9A0001520FFF7A9FF031CFB60FB68002B01D0CB
:10D9B000FB6806E0BB1D1B780320191CFFF7A8FFBE
:10D9C000031C181CBD4604B080BDC046682800205A
:10D9D00080B500AF00F01CF8031E06D0094B0A4AC0
:10D9E0001A600A4B802212021A6000F051F8031EDE
:10D9F00005D08023DA05C123DB000121D150BD46CB
:10DA000080BDC04604050040DFFF07C0186C004021
:10DA100080B500AF1A4B1B68FF221340012B2AD19F
:10DA2000184B1B680F22134025D1174B1B68F0229F
:10DA3000134006D1154B1B68F022134001D101237E
:10DA40001AE0114B1B68F0221340102B06D10F4B2C
:10DA50001B68F022134001D101230DE00A4B1B6823
:10DA6000F0221340302B06D1084B1B68F0221340E4
:10DA700001D1012300E00023181CBD4680BDC04633
:10DA8000E00F00F0E40F00F0E80F00F0EC0F00F002
:10DA900080B500AF0D4B1B68FF221340012B11D145
:10DAA0000B4B1B680F2213400CD10A4B1B68F02252
:10DAB0001340402B06D1084B1B68F022134001D1C4
:10DAC000012300E00023181CBD4680BDE00F00F0DC
:10DAD000E40F00F0E80F00F0EC0F00F02EDF7047CD
