:020000023000CC
:10500000004000207DDA0300C5DA0300C7DA0300A0
:105010000000000000000000000000000000000090
:105020000000000000000000000000000D5A030016
:105030000000000000000000CBDA0300CDDA03001E
:10504000CFDA0300CFDA0300CFDA0300CFDA0300B0
:10505000CFDA030000000000D5BD0300CFDA030063
:10506000CFDA0300CFDA0300CFDA0300CFDA030090
:10507000CFDA0300CFDA0300CFDA0300CFDA030080
:10508000CFDA030049CD0300CFDA0300CFDA030003
:1050900095CD030051810300CDD30300CFDA030087
:1050A000CFDA0300CFDA03000000000000000000A8
:1050B00000000000000000000000000000000000F0
:1050C000164B002B00D1144B9D46402292029A1A97
:1050D000924600218B460F461348144A121A00F0DC
:1050E00067F80F4B002B00D098470E4B002B00D0D9
:1050F00098470020002104000D000D48002802D030
:105100000C4800E000BF00F02DF82000290000F05E
:105110001BFA00F011F8C046000008000040002013
:10512000000000000000000068200020A8320020DD
:105130000000000000000000084B10B5041C002B0C
:1051400002D0002100E000BF054B1868836A002BE5
:1051500000D09847201C00F033F8C0460000000043
:1051600050DC03000E4B70B500251E1C0D4CE41ADC
:10517000A410A54204D0AB00F35898470135F8E7D6
:1051800008F058FD084B00251E1C084CE41AA4101A
:10519000A54204D0AB00F35898470135F8E770BD3D
:1051A000682000206820002068200020682000205F
:1051B000031C8218934202D019700133FAE770473A
:1051C000FEE7C04680B500AFBFF34F8F024B034AE6
:1051D000DA60BFF34F8FFEE700ED00E00400FA0550
:1051E00018DF7047181CC04680B582B000AF7860E9
:1051F000A023DB057A68C132FF3292000321D1502F
:10520000BD4602B080BDC04680B582B000AF7860B8
:10521000A023DA057B6801219940A123DB00D1504E
:10522000BD4602B080BDC04680B582B000AF786098
:10523000A023DB057A68012191400A1C02495A50DB
:10524000BD4602B080BDC0460C05000013DF7047AC
:10525000181CC04660DF7047181CC04680B584B07B
:1052600000AFF860B9607A600348F968BA687B6893
:1052700008F04EFB00BEFEE754DC030080B582B0B0
:1052800000AF021C3960BB1D1A80BB1D1A8805497E
:105290003B68081C111C1A1CFFF7E0FFBD4602B05A
:1052A00080BDC046EFBEADDE80B500AF1520FFF774
:1052B0009BFF1520FFF7A8FFBD4680BD90B585B0C8
:1052C00002AF0D4C0D4B0093002003210922231C3B
:1052D00007F066FD031C7B607B683B603B68002B2E
:1052E00006D03A68064B101C99211A1CFFF7B6FF2E
:1052F000BD4603B090BDC0466820002041D10300E8
:105300007CDC030080B582B000AF78607B68181C3D
:1053100005F0E2F9BD4602B080BDC04680B590B050
:1053200000AF021CFB1D1A701423FB1800221A6028
:1053300000225A6000229A600022DA601423FB18CF
:1053400002221A60FB1D1B78002B12D01423FB18BD
:10535000181CFFF745FF031CFB63FB6BBB63BB6BB8
:10536000002B06D0BA6B314B101CCA211A1CFFF758
:1053700075FFD4239B02181CFFF768FF031CFB6317
:10538000FB6B7B637B6B002B06D07A6B274B101C6F
:10539000CE211A1CFFF762FF254B0820191C48225A
:1053A000002307F0A5FF031C3B633B6BFB62FB6A1A
:1053B000002B06D0FA6A1D4B101CD1211A1CFFF7D6
:1053C0004DFF0C23FB18181C00210822FFF7F0FEEC
:1053D0000C23FB181A7801210A431A700C23FB18BE
:1053E000181CFFF737FF031CFB63FB6BBB62BB6A38
:1053F000002B06D0BA6A0D4B101CD8211A1CFFF7DF
:105400002DFF0C4B181C07F0CDFF031CFB63FB6B3F
:105410007B627B6A002B06D07A6A044B101CDB216E
:105420001A1CFFF71BFFBD4610B080BD7CDC0300DB
:10543000C82300200553030080B582B000AF0B4B9A
:10544000082014211A1C06F001FB031C7B607B68FA
:105450003B603B68002B06D03A68054B101CE421EA
:105460001A1CFFF7FBFEBD4602B080BD10240020D1
:105470007CDC030080B592B000AF3B1C181C0021FF
:105480004022FFF795FE3A1C294B101C191C03F013
:1054900001FE3B1C18331A1C264B101C191C03F070
:1054A000F9FD3B1C20331A1C234B101C191C03F064
:1054B000F1FD3B1C28331A1C204B101C191C03F057
:1054C000E9FD3B1C3C22995C0F208143081C012113
:1054D000014399543B1C3C22995C0F200140081C5D
:1054E0001021014399543B1C3D22995C0F208143BC
:1054F00099543B1C3D22995C0F20014099543B1C60
:10550000181C03F0E9FF031C7B647B6C3B643B6C61
:10551000002B06D03A6C0A4B101CFC211A1CFFF71A
:105520009DFE084B181C08F009FABD4612B080BD5C
:1055300088DC030090DC03009CDC0300A4DC030097
:105540007CDC0300C8DC030080B588B000AF1F23FB
:10555000FB1800221A708023DB057A4A9A581E2312
:10556000FB18B13A51424A411A701E23FB181B78AE
:10557000002B04D08023DB05724A00219950FFF7ED
:1055800093FE08F01DFA704B181C08F0D7F96F4B0A
:105590001B686F4A944663445A425341DBB2BB6175
:1055A000BB69002B07D18C235A006A4B0020111CC9
:1055B0001A1CFFF753FE80235B051B69664A94465D
:1055C00063445A425341DBB27B617B69002B08D1B3
:1055D0001A23FF331A1C5F4B0020111C1A1CFFF703
:1055E0003DFEFFF76BFE01F053FE01F0EBFE031EE4
:1055F0003CD01520FFF718FE01F0FAFE031C3B61BA
:105600003B69FB60FB68002B08D0F96894235A00C3
:10561000504B081C111C1A1CFFF720FE1E23FB1800
:105620001B785A1E9341DBB201225340DBB21A1C95
:1056300001231340DBB2181CFFF770FEFFF7FCFEDE
:1056400001F026FF031C3B613B69BB60BB68002B7C
:1056500008D0B96897235A003E4B081C111C1A1C2D
:10566000FFF7FCFD1520FFF7CFFD13E01E23FB180D
:105670001B785A1E9341DBB201225340DBB21A1C45
:1056800001231340DBB2181CFFF748FEFFF7D4FEDE
:10569000FFF7F0FE1F23FB181E22BA1812781A70AB
:1056A0001F23FB181B78002B0CD1C0239B019B6888
:1056B000181C01F073FC031C1A1C01235340DBB2BD
:1056C000002B1CD01520FFF7AFFD244B181C08F051
:1056D00035F901F003FE031C3B613B697B607B688D
:1056E000002B09D079684823FF331A1C194B081C7A
:1056F000111C1A1CFFF7B2FD1520FFF785FDC02312
:105700009B019B68181C01F049FC031E12D001F09C
:1057100059FE031C1A1C01235340DBB2002B09D095
:105720000F4B181C08F00AF9C0239B019B68181C3A
:1057300001F00EFEFFF746FD0023181CBD4608B021
:1057400080BDC0461C050000DCDC03001410001006
:1057500000B0FCFF7CDC030000FCFFFF08DD030061
:1057600014DD030080B582B000AF78607B681B78E1
:105770009AB27B6801331B781B029BB213439BB226
:105780009BB2181CBD4602B080BDC04690B585B026
:1057900000AF786039600023FB603B680B2B01D8B9
:1057A000092381E07B68BB607B68DAB23B68DBB2CF
:1057B000D318DAB2BB681B8904335B00B968CB1815
:1057C0000233DBB2D31ADAB2394B1A70384B1B787A
:1057D000012B01D8092367E07A683B68D318BA68BF
:1057E000128904325200B9688A180232934211D2E7
:1057F0007A683B68D318191CBB681B8904335B00AB
:10580000BA68D31802331A1C2A4B181C08F080F807
:10581000092349E0BB681B8904335B00BA68D318CD
:105820009A1C234B1B781C1C234B181C111C221C7C
:1058300008F0EFF9214B1B88214A934207D0BB683F
:105840001A881E4B1B889A4201D00B232CE01B4B5D
:105850005B881B4A934207D0BB685A88174B5B880A
:105860009A4201D00B231FE017E0BA68FB680433AB
:105870005B00D3185B88134A93420CD0FB685A1C18
:10588000FA60BA6804335B00D3185A88C0239B01BE
:105890009B899A4201D1002306E0BB681B891A1E2E
:1058A000FB689A42E1D80B23181CBD4605B090BD99
:1058B0006C25002020DD03006025002080100010F2
:1058C000FFFF0000FEFF000090B585B000AF7860DC
:1058D00039600E23FC187A683B68101C191C0022E2
:1058E00005F05CFE031C23800C23FC18124B181CD3
:1058F000FFF738FF031C23800E23FA180C23FB1834
:1059000012881B889A4212D00C23FB181B88002B8C
:105910000BD00E23FB181A880C23FB181B88074991
:10592000081C111C1A1C07F0F3FF0B2300E00023D6
:10593000181CBD4605B090BD6025002040DD030069
:1059400080B586B000AF78607B68002B01D10E2354
:1059500038E07B687B611D4B3B613A697B69D31AF8
:10596000BB607A693B699A4221D0BB683B2B17D850
:105970000023FB603B693C333B617B693C337B61CB
:1059800008E03B695A1E3A61191C7B695A1E7A610C
:105990001B780B70FB685A1CFA603C2BF1D906E0AF
:1059A0003A697B69101C191C3C2208F032F9074B3C
:1059B000181C3C21002205F0F1FD031C1A1C044BAD
:1059C0001A800023181CBD4606B080BD702500203B
:1059D000AC25002080B582B000AF021C3960FB1DF1
:1059E0001A70FB1D1B78002B08D13B681B68181C24
:1059F000FFF7A6FF021C3B681A6003E03B68012228
:105A00001A60C046C046BD4602B080BD0648864505
:105A100002D1EFF3098101E0EFF3088188690238D0
:105A20000078024A1047C046FDFFFFFFD55903002A
:105A300090B585B000AF78600E23FC180F4B181C92
:105A40003C21002205F0AAFD031C23800C4B1B887F
:105A50000E22BA1812889A4201D00B230AE07A6803
:105A6000064B111C1A1C3C23081C111C1A1C08F0A4
:105A7000D0F80023181CBD4605B090BD702500204D
:105A8000AC25002080B582B000AF78607B681B78C1
:105A90001A1C7B6801331B781B021A437B68023394
:105AA0001B781B041A437B6803331B781B061343C4
:105AB000181CBD4602B080BD80B582B000AF7860D2
:105AC000A023DB057A68C132FF3292000321D15056
:105AD000BD4602B080BDC04680B582B000AF7860E0
:105AE000A023DA057B6801219940A123DB00D15076
:105AF000BD4602B080BDC04680B582B000AF7860C0
:105B0000A023DB057A68012191400A1C02495A5002
:105B1000BD4602B080BDC0460C05000070DF704776
:105B2000181CC04671DF7047181CC04673DF7047F1
:105B3000181CC04674DF7047181CC04676DF7047DB
:105B4000181CC0467ADF7047181CC0467CDF7047BF
:105B5000181CC0467FDF7047181CC04682DF7047A4
:105B6000181CC046A7DF7047181CC046A8DF704746
:105B7000181CC046A9DF7047181CC046AADF704732
:105B8000181CC04667DF7047181CC04680B582B03D
:105B900000AF204B1B88204A934201D1082335E0F7
:105BA0001E4B1B78002B26D01A4B1A881C4B101C3E
:105BB000191C08220123FFF7DDFF031C7B607B68B3
:105BC000002B01D07B6821E0124B1B88124A181C65
:105BD0000C21FFF7C7FF031C7B607B68114A9342CF
:105BE00006D07B68082B03D07B680F4A93420CD108
:105BF00000237B6009E0074B1B88181C0021002252
:105C00000023FFF7B7FF031C7B607B68181CBD46B1
:105C100002B080BD60200020FFFF00005026002061
:105C200048260020023000000430000080B582B019
:105C300000AF78600A1CFB1C1A707B680C2B15D80F
:105C40007B689A000C4BD3181B689F4601230EE01B
:105C500002230CE003230AE0042308E0FB1C1B786A
:105C6000042B01D1052302E0062300E00623181CC3
:105C7000BD4602B080BDC04674DD030090B58BB058
:105C800000AFF860B9607A60FB68032B4DD0042B3D
:105C900000D06CE0BB68002B1AD0364B1B88364A0C
:105CA000934214D0334B1B88181C1321FFF746FF77
:105CB000031C7B627B6A3B623B6A002B07D03A6A1B
:105CC0002E4B101CDC211A1CFFF7C8FA2CE02BE02D
:105CD0007B68181C05F03CFD031C7B627B6AFB6142
:105CE000FB69002B06D0FA69244B101CE2211A1C18
:105CF000FFF7B4FA224B1A687B689A4214D1214B01
:105D0000181C0321012204F0E1FA031C7B627B6A68
:105D1000BB61BB69002B07D0BA69184B101CEB2183
:105D20001A1CFFF79BFA22E021E01723FC18BB683E
:105D3000181C0121FFF77AFF031C2370114A172357
:105D4000FB181B78101C01211A1C04F0BFFA031C5D
:105D50007B627B6A3B613B69002B07D03A69074B4A
:105D6000101CF7211A1CFFF779FAFFE7C046BD4661
:105D70000BB090BD60200020FFFF0000A8DD0300F5
:105D800054260020D025002090B585B000AF786063
:105D900039600F23FC183B68181C0321FFF746FFEE
:105DA000031C23707A680F23FB181B78101C032137
:105DB0001A1C04F08BFA031C3B603B68BB60BB6899
:105DC000002B09D0B9681223FF331A1C044B081C9E
:105DD000111C1A1CFFF742FABD4605B090BDC04623
:105DE000A8DD030090B591B000AF7860396018234A
:105DF000FB1800221A6000225A6000229A600022DA
:105E0000DA60404B1A781823FB181A700C23FB1821
:105E100000221A6000225A6000229A600C23FB18AC
:105E200003221A600C23FB181822BA185A603B6828
:105E30001B79BB63BB6B0C2B17D07B68181C012133
:105E4000032204F043FA031CFB63FB6B7B637B6B55
:105E5000002B09D0796B97235A002B4B081C111C7F
:105E60001A1CFFF7FBF94AE049E03B689B683B637B
:105E70003B6B181CFFF706FE021C1823FB185A6028
:105E80003B6B0433181CFFF7FDFD021C1823FB18A5
:105E90009A603B6B0833181CFFF7F4FD021C1823B3
:105EA000FB18DA600C23FB18181C01F05FFD031CC3
:105EB000FB63FB6B002B13D02F23FC18FB6B181C10
:105EC0000121FFF7B3FE031C23707A682F23FB1810
:105ED0001B78101C01211A1C04F0F8F9031CFB6349
:105EE000FB6BBB62BB6A002B09D0B96A4423FF334A
:105EF0001A1C054B081C111C1A1CFFF7AFF9BD46F4
:105F000011B090BD01260020A8DD030090B58DB032
:105F100000AF786039603B681B791A1C032313407B
:105F200027D02B23FB183A6812791A702B23FB1801
:105F30001B78032213400422D31A7B620023FB62E6
:105F40000EE03B689A682B23FB181B782B217918ED
:105F5000581C0870D31800221A70FB6A0133FB62C8
:105F6000FA6A7B6A9A42ECD33B682B22BA18127801
:105F70001A710C23FB1801221A603B689A680C23E3
:105F8000FB189A603B681B799B08DBB21A1C0C2338
:105F9000FB185A600C23FB18181C01F023FE031C8D
:105FA0003B623B6A002B22D01F23FC183B6A181C63
:105FB0000221FFF73BFE031C23707A681F23FB18A6
:105FC0001B78101C02211A1C04F080F9031C3B6290
:105FD0003B6ABB61BB69002B09D0B9697623FF33EB
:105FE0001A1C044B081C111C1A1CFFF737F9BD467C
:105FF0000DB090BDA8DD030080B58CB000AF786017
:1060000039603B681B791A1C0323134017D07B6847
:10601000181C0321032204F059F9031CFB62FB6ADC
:10602000FB61FB69002B09D0F969C5235A00604B5D
:10603000081C111C1A1CFFF711F9B5E0B4E03B680D
:106040001B79BB61BA695B4B101C191C05F034FB52
:10605000031CFB62FB6A002B06D07A68FB6A101CEB
:10606000191CFFF791FE9FE03B689B68BB62514B98
:106070001968BB69BA6A081C111C1A1C07F0C9FD13
:10608000BB69181C05F0C0FB031CFB62FB6A002BFC
:1060900006D07A68FB6A101C191CFFF775FE83E0B6
:1060A000444A1823FB18101C191C05F0C9FB031CDB
:1060B000FB62FB6A002B06D07A68FB6A101C191C75
:1060C000FFF762FE70E00C23FB1804221A60BB6924
:1060D0009A080C23FB185A60364B1A680C23FB18DD
:1060E0009A600C23FB18181C01F0DAFC031CFB62FD
:1060F000FB6A002B0CD13B681B791A1C2E4B1B68CA
:10610000D2182D4B1A602B4B1A682C4B1A604BE09F
:10611000FB6A092B32D13B681B791A1C264B1B6882
:10612000D218254B1A60264B1B78002B3CD0254BF0
:106130001B88013B9AB2234B1A80224B1B88002BF1
:1061400032D11D4B1B687A68101C191C04F050F8E2
:10615000031CFB62FB6A7B627B6A002B09D0796AB5
:10616000C823FF331A1C124B081C111C1A1CFFF702
:1061700075F8154B1A88134B1A8015E00D4B1B68E8
:10618000181C05F0E5FA031C3B623B6A002B05D0A6
:106190007A683B6A101C191CFFF7F6FD7A68FB6AE7
:1061A000101C191CFFF7F0FDBD460CB080BDC046A9
:1061B000A8DD03000C260020042600205426002021
:1061C000112600200A2600200826002080B582B073
:1061D00000AF78603960104B1B78022B0BD0032B7B
:1061E00010D0012B00D014E07A683B68101C191CF9
:1061F000FFF7F8FD0DE07A683B68101C191CFFF7EB
:1062000085FE06E07A683B68101C191CFFF7F4FE57
:10621000C046BD4602B080BD0026002080B582B0D9
:1062200000AF78607A680449044B101C1A1CFFF711
:1062300015F8BD4602B080BD02020000A8DD0300D3
:1062400080B58AB000AF3B1D181C00211C22FEF750
:10625000AFFF3B1D00221A603B1D154A5A603B1DD3
:106260008022D2019A603B1D03221A733B1D00223B
:10627000DA813B1D00221A743B1D00225A613B1D2E
:106280000C4A9A613B1D181C02F03AF8031C7B6211
:106290007B6A3B623B6A002B06D03A6A0649074B91
:1062A000101C1A1CFEF7DAFFBD460AB080BDC046BE
:1062B000CD0C00001D62030019020000A8DD0300E0
:1062C00090B58BB000AF786039603B681B78092BC4
:1062D00000D9C6E09A00654BD3181B689F4601F0B1
:1062E000D3FC031C7B622323FC187B6A181C04214B
:1062F000FFF79CFC031C23707A682323FB181B7890
:10630000101C04211A1C03F0E1FF031C7B627B6A52
:10631000FB61FB69002B07D0FA695549554B101CEE
:106320001A1CFEF79BFF9DE09CE000F023FD031C80
:106330007B627B6ABB61BB69002B08D0B9698E2385
:106340009A004C4B081C111C1A1CFEF787FF01F029
:10635000DBFC031C7B627B6A002B02D001F006FD94
:1063600080E07FE000F006FD031C7B627B6A7B61BE
:106370007B69002B06D07A693F493E4B101C1A1CE2
:10638000FEF76CFF01F0F2FC6CE03C4B01221A704E
:106390003B689B681A783A4B1A7063E0374B0222CD
:1063A0001A703B689B681B78012B24D101F0EAFB33
:1063B000031C7B622323FC187B6A181C0221FFF755
:1063C00035FC031C23707A682323FB181B78101CF0
:1063D00002211A1C03F07AFF031C7B627B6A3B617B
:1063E0003B69002B07D03A692649224B101C1A1C26
:1063F000FEF734FF36E035E0204B03221A7031E01F
:106400007A683B68101C191CFFF7E0FE2AE01E4B5F
:1064100001221A703B689A881C4B1A803B689A8844
:106420001B4B1A801EE0184B00221A70174B0022DB
:106430001A8017E0174B1B687A68101C191C03F0B0
:1064400051FE031C7B627B6AFB60FB68002B07D05C
:10645000FA681149074B101C1A1CFEF7FFFE01E0F9
:1064600000E0C046BD460BB090BDC04618DE03003C
:1064700033020000A8DD03004502000000260020D2
:1064800001260020590200001126002008260020C5
:106490000A260020042600207202000080B592B077
:1064A00000AF021CFB1D1A701F4B9A790C23FB18BE
:1064B0009A700C23FB181D4A1A801023FB18181C15
:1064C00000213022FEF774FE1023FB1802221A70FE
:1064D0001023FB1800229A701023FB18FA1D127863
:1064E000DA701023FB1801221A811023FB180C22EA
:1064F000BA18DA601023FB18181C002102F064FDA2
:10650000031C7B647B6C3B643B6C002B08D0396CB8
:10651000A5239A00064B081C111C1A1CFEF79EFEB0
:10652000BD4612B080BDC046D02500203015000009
:10653000A8DD030080B58CB000AF424B1B78012270
:106540005340DBB2002B00D179E03F4B181C0021F7
:106550001822FEF72DFE3D4B1B78002B48D0182348
:10656000FB18181C00211022FEF722FE384A1823BF
:10657000FB18101C191C102207F03CFB031E12D143
:106580000520FFF78BFF304B01221A702E4B314A4A
:106590005A602D4B00221A722B4B00221A822A4B72
:1065A00000225A8236E02A4B7B612A4B3B613B1C1E
:1065B00001221A713B1C1022BA181A603B1C0122DE
:1065C0001A733B1C1422BA189A600420FFF766FF66
:1065D0001D4B00221A701C4B02221A721A4B3A1CD5
:1065E000DA60194B28221A82174B00225A8211E0D6
:1065F0000620FFF753FF144B00221A70124B0022A3
:106600005A60114B00221A720F4B28221A820E4B2D
:1066100000225A820C4B181CFFF788FA031CFB62FD
:10662000FB6ABB62BB6A002B06D0BA6A0A490B4BF5
:10663000101C1A1CFEF712FE024B01221A70BD46F6
:106640000CB080BD12260020B82500205026002066
:106650001B26002014260020D2020000A8DD030023
:1066600080B582B000AF0D4B1B78002B12D0FFF726
:1066700061FA031C7B607B683B603B68002B06D0A3
:106680003A680749074B101C1A1CFEF7E7FD034B3D
:1066900000221A70BD4602B080BDC04612260020FE
:1066A000E2020000A8DD030090B5CBB002AF786035
:1066B0007B681B88552B00D9F4E19A00D94BD3187D
:1066C0001B689F461520FFF717FAD74B181C07F0D9
:1066D00035F97B689A88D54B1A80D54B00221A7001
:1066E000E1E1EA23FB1880221A80D24B181C07F044
:1066F00025F91520FFF7F0F9CF4B32221A60CB4B6A
:1067000019880823FA18EA23FB18081C111C1A1C04
:106710000123FFF733FA031C8C225200BA181360CE
:106720008C235B00FB181B68002B1FD08C235B00A5
:10673000FB181B68052B19D08C235B00FB181B680A
:106740008A225200BA1813608A235B00FB181B6868
:10675000002B0BD08A235B00FB181968C4239A0016
:10676000B64B081C111C1A1CFEF778FDB44B1B78A5
:1067700001225340DBB2002B01D0FFF7DBFEAB4B15
:10678000012252421A808EE19C23FB18AD4A10333D
:10679000116819609188998092799A719C23F918EF
:1067A000A84B07229B181022081C191C07F031FA6D
:1067B000B423FA18A34B183313CB13C213CB13C251
:1067C0001B681360D023FB189C22BA181A61D023CF
:1067D000FB18B422BA18DA60944B19889A4AD0236D
:1067E000FB18081C8521FFF7B5F9031C8C22520009
:1067F000BA1813608C235B00FB181B6888225200B8
:10680000BA18136088235B00FB181B68002B0AD0A2
:1068100088235B00FB181A688C49884B101C1A1CD3
:10682000FEF71CFD3FE13EE17B689B79002B23D105
:106830007E4B1B88181C1321FFF780F9031C8C2248
:106840005200BA1813608C235B00FB181B68862269
:106850005200BA18136086235B00FB181B68002BDC
:106860000AD086235B00FB181A687949734B101C09
:106870001A1CFEF7F3FC16E115E17B689B79002BEF
:106880002AD16B4B00221A706B4B1B685A1E6A4B45
:106890001A60694B1B68002B1BD18823FB18002250
:1068A0001A6000225A6000229A600022DA600022F8
:1068B0001A618823FB1805221A708823FB186A4680
:1068C00019691160186859689A68DB6800F0DAFB8A
:1068D00002E0FFF72FFEE6E0E5E0544B1B88181CB2
:1068E0000021FFF74FF9031C8C225200BA181360E5
:1068F0008C235B00FB181B6884225200BA181360BB
:1069000084235B00FB181B68002B0AD084235B00E8
:10691000FB181A684F49494B101C1A1CFEF79EFCC5
:10692000C1E0C0E07B689B79002B40D07B689B7AFC
:10693000042B07D07B689B7A062B03D07B689B7A5D
:10694000052B34D17B689B79022B04D1EC23FB18F7
:1069500002221A7003E0EC23FB1801221A70EC23C8
:10696000FB18C12252009A80304B1A88EC23FB1886
:10697000101C191CFFF7FAF8031C8C225200BA18DD
:1069800013608C235B00FB181B687A1DFF321360B9
:106990007B1DFF331B68002B09D07B1DFF331A685A
:1069A0002D49264B101C1A1CFEF758FC7BE07AE0A0
:1069B00000238E225200BA1813607B68DA89214BBB
:1069C0005B8D9A4204D1254B8E225200BA18136077
:1069D0007B6899888E235B00FB181A68204B081C83
:1069E000111C1A1C0023FFF7B9F8031C8C2252005B
:1069F000BA1813608C235B00FB181B687A1CFF32EB
:106A000013607B1CFF331B68002B09D07B1CFF33FA
:106A10001A681449094B101C1A1CFEF71FFC42E0AF
:106A200041E0C04640DE0300D0DD030060200020CE
:106A300012260020DCDD030064200020A8DD030016
:106A40001026002014260020B0250020310300006D
:106A50003A030000510300006B0300002C260020C5
:106A60001B2600207F030000FFF790F8031C8C22F8
:106A70005200BA1813608C235B00FB181B68FC22C1
:106A8000BA181360FC23FB181B68002B09D0FC23E9
:106A9000FB181A680549064B101C1A1CFEF7DEFB92
:106AA00001E000E0C046BD4649B090BD860300004D
:106AB000A8DD030080B582B000AF78607B68181C49
:106AC00001F07AFD064A7B68101C191C03F0CEFA0F
:106AD0007B68181CFFF7E8FDBD4602B080BDC046CC
:106AE000D025002080B500AF1520FEF7E5FF15206A
:106AF000FEF7F2FFBD4680BD80B586B000AF3B1CFF
:106B00001A780F218A43111C01220A431A703B1C78
:106B10001A780F210A40111C10220A431A70214BC7
:106B2000181C07F07FF8031C9BB2391C1D4A081C77
:106B3000111C1A1CFFF70AF8031C7B617B693B617F
:106B40003B69002B06D03A691749184B101C1A1CD8
:106B5000FEF784FB3B1D181C00210822FEF728FBD2
:106B60003B1D0C221A803B1D18225A803B1D00221F
:106B70009A803B1DC8225200DA803B1D181CFEF78C
:106B8000E1FF031C7B617B69FB60FB68002B06D087
:106B9000FA680749054B101C1A1CFEF75FFBBD463F
:106BA00006B080BDECDD0300BF030000A8DD0300DC
:106BB000C903000080B582B000AF78607A680449EC
:106BC000044B101C1A1CFEF749FBBD4602B080BDE9
:106BD000D6030000A8DD030080B586B000AF3B1DE2
:106BE000181C00210C22FEF7E3FA3B1D06221A8036
:106BF0003B1D0E4A5A603B1D0D4A9A600D4A3B1DD3
:106C0000101C191C03F0ACF9031C7B617B693B6110
:106C10003B69002B06D03A690749084B101C1A1C27
:106C2000FEF71CFBBD4606B080BDC046C162030036
:106C3000B56B0300D0250020EA030000A8DD0300A7
:106C400080B500AF0F4B1A7801218A431A700D4BA3
:106C50001A7802218A431A700A4B1A781C218A4337
:106C6000111C0C220A431A70064B1A7820218A4301
:106C70001A70044B07225A70024B10229A70BD46BC
:106C800080BDC046B025002080B586B000AF304B37
:106C900000221A702F4B00221A70FFF723FF2E4B91
:106CA000181C06F06BFB031C7B617B69002B01D079
:106CB0007B6949E0294B181C00F04CFE04F0D8FC1D
:106CC000031C7B617B69002B01D07B693CE0244B7A
:106CD000181CFEF7ADFE031C7B617B69002B03D102
:106CE000204B01221A7024E03B1D181CFEF71AFFEE
:106CF000031C7B617B693B613B69002B06D03A69D1
:106D000019491A4B101C1A1CFEF7A8FA3B1D00204B
:106D1000191CFEF703FF031C7B617B69FB60FB68AA
:106D2000002B06D0FA681249104B101C1A1CFEF7F3
:106D300095FAFFF7E1FEFFF74FFFFFF781FAFFF744
:106D40007FFFFFF7F7FB0023181CBD4606B080BD90
:106D50001026002000260020B56A03007D5C030099
:106D600014260020502600201C040000A8DD03008B
:106D70002404000080B582B000AF1A4B01221A70C3
:106D8000194B1B88194A934215D0174B1B88181CA6
:106D90001321FEF7D3FE031C7B607B683B603B68DE
:106DA000002B07D03A681249124B101C1A1CFEF730
:106DB00055FA02E001E0FFF753FC01F0F7FA031C7B
:106DC0007B607B68002B07D00B490C4A7B68081C52
:106DD000111C1A1C06F09CFD0023181CBD4602B0B5
:106DE00080BDC0461026002060200020FFFF00006C
:106DF0003B040000A8DD0300F4DD030098DF03007E
:106E000080B586B000AF78607B681B68BB60BB68EC
:106E100083F308887B6804331B687B617B693B6173
:106E20000C4B5B68DB05DB0DFB60FB68002B0BD0BC
:106E3000094C094D4668094FF0B40024002500268E
:106E40000027F0B4064800473B699847BD4606B0A6
:106E500080BDC04600ED00E0FFFFFFFF0000002105
:106E6000F9FFFFFF80B582B000AF7860064A7B680B
:106E7000101C191C06F04CFD7B68181CFFF7C0FFA6
:106E8000BD4602B080BDC046ACDF030080B582B015
:106E900000AF7860034B1B687B68034A1A60BD46ED
:106EA00002B080BD1410001000FC030080B582B059
:106EB00000AF021CFB1D1A70074AFB1D1B78191C32
:106EC0001F230B40012199400B1C191C8023D1501A
:106ED000BD4602B080BDC04600E100E048DF70471B
:106EE000181CC04611DF7047181CC04613DF7047DE
:106EF000181CC04680B586B000AFF8607A603B6071
:106F00000B23FB180A1C1A700D4B1B78012B07D1A1
:106F10000B23FB181B78022B02D1094B02221A709B
:106F20007B687B617B69002B06D07A69054B101C5E
:106F300040211A1CFEF792F9BD4606B080BDC0463E
:106F400060260020D0DF030080B582B000AFFFF7DD
:106F5000C5FF031C7B607B683B603B68002B06D051
:106F60003A680C4B101C52211A1CFEF777F904F0FA
:106F7000BFFE094B1B78022B07D0074B1B78032B56
:106F800003D0054B1B78042B00D100E0DFE7BD46A2
:106F900002B080BDD0DF03006026002090B585B030
:106FA00000AF78607B681B68013301D1002331E0BA
:106FB0000F23FB1800221A700823FB18181CFFF778
:106FC00065FFBB681B78012B21D10C23FB18002225
:106FD0001A80BB685B88002B0ED0C0239B019B6886
:106FE0001A1CBB689B680C217C18101C191C002201
:106FF00004F0D4FA031C2380BB685A880F23FB18C3
:107000000C21791809888A1A51424A411A700F23B3
:10701000FB181B78181CBD4605B090BD80B586B026
:1070200000AF7860154B181C1C2104F07BF9031C81
:107030007B617B693B613B69002B06D03A69104B51
:10704000101C87211A1CFEF709F90C4A7B68101CDA
:10705000191C1C22002303F0FDFF031C7B617B69CC
:10706000FB60FB68002B06D0FA68054B101C8D21D5
:107070001A1CFEF7F3F8BD4606B080BD5826002066
:10708000D0DF030084B090B585B000AF20243C1958
:1070900020606160A260E3603B1D181CFFF7F6FEF4
:1070A0002023FB181B78002B17D12023FB185A88AC
:1070B000744B5A802023FB18DA68724B9A60714B2C
:1070C00001221A706F4BFF221A716F4B01221A7046
:1070D0006C4B181CFFF7A2FFCEE02023FB181B7897
:1070E000012B33D12023FB185A88664B5A8020236A
:1070F000FB185A682023FB189B68D2182023FB1822
:10710000DB68D2185F4B9A605E4BA5221A705D4B0C
:10711000FF221A712023FB185A685A4BDA60202389
:10712000FB189A68574B1A612023FB18DA68554BF5
:107130005A612023FB181A69524B9A61524B012263
:107140001A70504B181CFFF769FF95E02023FB18BD
:107150001B78032B25D17B681A784A4B1A707B6801
:107160005A88484B5A807B689A68464B9A60454BD0
:10717000AA221A712023FB185A68424BDA60202396
:10718000FB189A683F4B1A612023FB18DA683D4BC5
:107190005A613D4B01221A703A4B181CFFF73EFF13
:1071A0006AE02023FB181B78022B2DD17B681B780B
:1071B000A52B09D1334B00225A80324B00229A6012
:1071C000304BFF221A700BE07B681A782D4B1A7037
:1071D0007B685A882B4B5A807B689A68294B9A6047
:1071E000284BFF221A71274B0022DA60254B002220
:1071F0001A61244B00225A61234B01221A70214B41
:10720000181CFFF70BFF37E02023FB181B78052B1A
:1072100013D1FFF7AFFD031CFB60FB68BB60BB68CD
:10722000002B06D0BA68194B101CDB211A1CFEF784
:1072300015F8154B03221A701EE02023FB181B784B
:10724000042B11D10F4B00225A800E4B00229A6062
:107250000C4BFF221A707B681A790A4B1A71094B82
:10726000181CFFF7DBFE07E02023FB181B78062B1A
:1072700002D1054B04221A70BD4605B090BC08BC73
:1072800004B018476426002060260020D0DF0300E9
:1072900080B584B000AF3B1C0E4A1A603B1C1C2218
:1072A0005A603B1C01229A6003F080FD031CFB60C6
:1072B000FB68002B01D0FB6808E03A1C064B101C51
:1072C000191C03F0D9FD031CFB60FB68181CBD46AC
:1072D00004B080BDF56E03005826002080B582B052
:1072E00000AF00F0BFFA031C7B607B68002B01D06D
:1072F0007B6806E0FFF7C8FC031C7B60FFF724FEF9
:107300007B68181CBD4602B080BDC04680B582B007
:1073100000AF00237B600D4B1B683B6010E07B6877
:1073200001229A40131C1A1C3B68134005D07B684D
:10733000DBB25BB2181CFFF7B9FD7B6801337B60E1
:107340007B681F2BEBD9BD4602B080BD00E100E099
:1073500080B586B000AF7860FFF7C4FD031C7B6189
:107360007B693B613B69002B09D039693623FF33C8
:107370001A1C134B081C111C1A1CFDF76FFFFFF79A
:10738000C5FFC0239B019B68181CFFF7AFFD031CC2
:107390007B617B69FB60FB68002B08D0F9689D234B
:1073A0005A00074B081C111C1A1CFDF757FFC0237D
:1073B0009B019B68181CFFF755FDBD4606B080BDBC
:1073C000D0DF030080B582B000AF3B1D181CFFF773
:1073D0005DFD7B681B78A52B03D07B681B79AA2BEE
:1073E00001D1012300E00023181CBD4602B080BD7E
:1073F00080B584B000AF00F043FE031E05D100F05D
:1074000005FE031E01D100233BE0642002F0D8FFFB
:1074100000F04EFD031CFB60FB68BB60BB68002BEB
:1074200009D0B9686023FF331A1C184B081C111CC3
:107430001A1CFDF713FF00F023FE031CFB60FB6822
:107440007B607B68002B08D07968B1235A000F4B12
:10745000081C111C1A1CFDF701FF00F0A1FD031C04
:10746000FB60FB683B603B68002B09D039686623F2
:10747000FF331A1C054B081C111C1A1CFDF7EEFEED
:10748000FB68181CBD4604B080BDC046D0DF0300B9
:1074900080B588B002AF3B1D00221A6000225A60FE
:1074A00000229A600022DA6000221A613B1D02224B
:1074B0001A703B1D6A4619691160186859689A6804
:1074C000DB68FFF7DFFDFFF73FFD0023181CBD461B
:1074D00006B080BD80B58AB000AF78600C23FA1882
:1074E000184B101C191C1C22002303F05DFE0C23FA
:1074F000FB181A787B681A700C23FB185A887B6873
:107500005A800C23FB189A687B689A600C23FB183E
:107510001A797B681A710C23FB18DA687B68DA60C9
:107520000C23FB181A697B681A610C23FB185A6933
:107530007B685A610C23FB189A697B689A61BD4687
:107540000AB080BD5826002080B582B000AF7860B8
:107550007B68032213405A425341DBB2181CBD46DC
:1075600002B080BD18DF7047181CC04680B586B0D9
:1075700000AFF8607A603B600B23FB180A1C1A709E
:107580000B23FB181B78022B02D0042B10D025E014
:107590001A4B1B78052B0AD1194B1B68002B06D000
:1075A000174B1B6879683A680420984716E015E085
:1075B000124B1B78022B10D1124B5B6898470F4B74
:1075C00003221A700E4B1B68002B06D00C4B1B6855
:1075D00079683A6803209847FFE7C0467B687B617B
:1075E0007B69002B06D07A69074B101C5A211A1CA4
:1075F000FDF734FEBD4606B080BDC046842600209F
:10760000F4260020F8260020F0DF030080B58AB0C1
:1076100002AF78600C4B181C06F090F90B4B01225E
:107620001A700C23FB1805221A700C23FB186A46EB
:1076300019691160186859689A68DB68FFF722FDBC
:10764000BD4608B080BDC04614E00300E42600201B
:1076500080B584B000AF1A4B1B78002B01D00823F3
:107660002AE0184B1B68181C05F016FD031CFB6074
:10767000FB68BB60BB68002B06D0BA68124B101CBD
:107680007F211A1CFDF7EAFD0E4B1A68F0239B03BD
:10769000101C191C002205F0B9FC031CFB60FB68E0
:1076A0007B607B68002B06D07A68074B101C822118
:1076B0001A1CFDF7D3FDFB68181CBD4604B080BD45
:1076C000E4260020E0260020F0DF030080B584B02F
:1076D00000AF78600E4B0F4A1A600F4B02221A70EF
:1076E0000E4B1B680B4A101C191C03F025FF031CD2
:1076F000FB60FB68BB60BB68002B06D0BA68084B18
:10770000101C98211A1CFDF7A9FDBD4604B080BDD0
:10771000F0260020E826002084260020882600206D
:10772000F0DF030080B588B002AF3B1D00221A6075
:1077300000225A6000229A600022DA6000221A6158
:107740003B1D04221A703B1D6A46196911601868B6
:1077500059689A68DB68FFF795FCBD4606B080BDA6
:1077600080B588B002AF3B1D01221A70114B1A88F8
:107770003B1D5A80C0239B019A683B1D1A610E4B2A
:107780005A683B1D5A600C4B9A683B1D9A600A4B25
:10779000DA683B1DDA603B1D6A461969116018689A
:1077A00059689A68DB68FFF76DFC0023181CBD461A
:1077B00006B080BDDE2600208C26002080B588B073
:1077C00002AF00237B613B1C181C00211422FDF733
:1077D000EFFC3B1C00221A700B4B1A883B1C5A8092
:1077E0000A4BDA683B1CDA603B1C6A461969116077
:1077F000186859689A68DB68FFF744FC7B69181CB5
:10780000BD4606B080BDC046DE2600208C26002086
:1078100080B588B002AF3B1D03221A700F4B1A8847
:107820003B1D5A800E4B5A683B1D5A600C4B9A68A0
:107830003B1D9A600A4BDA683B1DDA603B1D6A46C5
:1078400019691160186859689A68DB68FFF71AFCB3
:107850000023181CBD4606B080BDC046DE260020B1
:107860008C26002080B586B000AF3B1C00221A6039
:1078700000225A6000229A603B1C2D4A1A602D4B50
:1078800000221A702C4B00221A803A1C2B4B101C21
:10789000191C03F0CFFD031C7B617B69002B04D016
:1078A000274B00221A707B693DE0C0239B019A6838
:1078B000224B5A60234A244B101C00211A1C05F04D
:1078C0002DFB031C7B617B693B613B69002B09D06D
:1078D00039692023FF331A1C1C4B081C111C1A1C6D
:1078E000FDF7BCFC174B1A68F0239B03101C191CF6
:1078F000002205F08BFB031C7B617B69FB60FB684E
:10790000002B09D0F9682423FF331A1C0F4B081CE5
:10791000111C1A1CFDF7A2FC0D4B00221A60084B2B
:1079200001221A700023181CBD4606B080BDC04657
:107930006D750300DC260020DE260020E8260020EE
:1079400084260020E02600200D760300F0DF0300EF
:107950008026002080B582B000AF7860024B7A6844
:107960001A60BD4602B080BDF426002090B585B0F7
:1079700000AF78607B685A68404B13CA13C3126823
:107980001A603E4B1B781A1C042313400DD03B4B4E
:107990001B781A1C0123134005D1384B1B781A1C85
:1079A0000223134001D0062363E0344B5B680322BB
:1079B000134009D1314B9B680322134004D12F4B54
:1079C000DB680322134001D0062352E02B4B5A6898
:1079D0002A4B9B68D218294BDB68D218284B1A60B7
:1079E000264B9A68AC231B029A4201D90C2340E033
:1079F000C0239B019B68D3229202D21A204B1B68A2
:107A00009A4201D20C2334E01E4B1F4A1A601D4BD0
:107A10001E4A5A60194B1B781A1C0123134003D0CD
:107A2000184B1B4A9A600CE0144B1B781A1C02235B
:107A3000134003D0134B174A9A6002E0114B164AC9
:107A40009A60164B1B78012B0FD1FFF701FE031C28
:107A5000FB60FB68002B01D0FB680AE0094B1A6849
:107A6000074B1B68181C904702E00823FB60C046C8
:107A7000FB68181CBD4605B090BDC0468C26002092
:107A800088260020F8260020CD7603002577030005
:107A90006177030011780300BD770300842600207E
:107AA00080B586B000AF78607B68002B01D10E23D3
:107AB0005BE07B689B68181CFFF746FD031C1A1CE3
:107AC00001235340DBB2002B01D010234DE0294BA2
:107AD0001B78032B45DB042B02DD052B02D040E095
:107AE000082342E07B685B689B003B61224B1A687D
:107AF0003B69D218214B1B689A4205D91E4B0122C3
:107B000052421A600C2330E0FFF7A2FD031C7B6198
:107B10007B69002B01D07B6927E07B689B68FB6059
:107B2000174B1868144B1B68F9683A6903F0B6FCE8
:107B3000031C7B617B69002B01D07B6915E00E4B38
:107B40001A683B69D2180C4B1A600B4B1A680B4B26
:107B50001B689A4202D009237B6105E000237B6108
:107B600002E008237B61C0467B69181CBD4606B055
:107B700080BDC04684260020802600208826002064
:107B8000F026002080B582B000AF08237B60114B47
:107B90001B68002B01D0082318E00F4B1B78042B27
:107BA00013D10E4B1B781A1C0D4B181C111CFDF722
:107BB000EDFD031C7B607B68002B03D1064B052287
:107BC0001A7002E0054B00221A707B68181CBD4633
:107BD00002B080BD8026002084260020DC26002004
:107BE0009C26002080B584B000AF78600023FB6045
:107BF000214B1B78032B02D0042B03D034E01E4B07
:107C000004221A701D4B1B68002B01D008232FE0A3
:107C1000FFF71EFD031CFB60FB68002B01D0FB6817
:107C200026E07B685B689B00BB60154B1B781A1CC9
:107C3000BB68D318402B01D9092319E0104B1B78DE
:107C40001A1C104BD1187B689A68BB68081C111C61
:107C50001A1C05F0DEFFBB68DAB2094B1B78D3189B
:107C6000DAB2074B1A7002E00823FB60C046FB68DB
:107C7000181CBD4604B080BD84260020802600204C
:107C8000DC2600209C26002080B582B000AF1A4B75
:107C90001B78052B28D1184B06221A70174B1A682F
:107CA000174B1B689A4202D008237B601BE0FFF74A
:107CB000CFFC031C7B607B68002B14D1114B1B682D
:107CC0005B681A1C0E4B1B68101C191CFDF7FCFD91
:107CD000031C7B607B68002B01D07B6808E0064BAF
:107CE00007221A7003E002E008237B60C0467B682D
:107CF000181CBD4602B080BD8426002080260020CE
:107D000088260020F026002080B582B000AF124BFC
:107D10001B78072B18D1114B1B68181C05F0BCF9F8
:107D2000031C7B607B683B603B68002B06D03A6895
:107D30000B490C4B101C1A1CFDF790FA0A4B9B6860
:107D40009847031C7B6002E008237B60C0467B6889
:107D5000181CBD4602B080BD84260020E02600200D
:107D60004F020000F0DF0300F826002080B588B045
:107D700002AF3B1D06221A703B1D6A46196911604D
:107D8000186859689A68DB68FFF77CF9BD4606B049
:107D900080BDC04680B588B000AFF860B9607A6039
:107DA0001023FB1803221A601023FB18FA685A608C
:107DB0001023FB18BA689A607B689A081023FB1896
:107DC000DA601023FB18181CFFF7CCFB031C181CEF
:107DD000BD4608B080BDC04680B588B000AFF86031
:107DE000B9607A601023FB1801221A601023FB1877
:107DF000FA685A601023FB18BA689A607B689A0880
:107E00001023FB18DA601023FB18181CFFF7AAFBDD
:107E1000031C181CBD4608B080BDC04680B586B0A6
:107E200000AFF860B9607A603B60F968BA687B6857
:107E3000081C111C1A1CFFF7ADFF031C7B617B693A
:107E4000002B01D17B692FE0BA6880235B019A4245
:107E500012D9FA683B68D31A181CBA683B68D31A5F
:107E6000191C3A683B68FFF7D9FF031C7B617B69EB
:107E7000002B01D07B6917E0F968BA687B68081CA1
:107E8000111C1A1CFFF7A8FF031C7B617B69002BE8
:107E900001D07B6908E0F968BA687B68081C111C8E
:107EA0001A1CFFF777FF031C181CBD4606B080BDE7
:107EB00080B58EB000AF3B1D181CFFF70BFB3B1DC0
:107EC000DB68002B01D1002366E03B1DDB688022CC
:107ED00052019A183B1D9B699A424BD980235B0142
:107EE0007B633B1D9A697B6BD31A5B083B633B1D2D
:107EF0009A693B1DDB68D318FB623B1D9A693B6B9B
:107F00005B00D318BB623B6B5A007B6BD3187B6260
:107F1000C0239B019A683B1DDB689A4220D27A6B92
:107F20003B6BD318191C7A6B3B6BD318081C191CBC
:107F30000422FFF751FF031C3B623B6A002B01D078
:107F40003B6A29E07A6B7B6B101C191C0422FFF73B
:107F500043FF031C3B623B6A002B01D03B6A1BE0E2
:107F6000B86A796AFA6ABB6AD21A3B6BFFF756FFA6
:107F7000031C11E03B1DDB68002B0CD03B1D9B69F3
:107F8000191C3B1DDA6880235B01081C191CFFF7D4
:107F900023FF031C00E00023181CBD460EB080BD6B
:107FA00080B58CB000AF1023FB18181CFFF792FAB5
:107FB0001023FB181B69002B22D01023FB18DB6851
:107FC000002B03D1C0239B019B6806E01023FB1804
:107FD0009A691023FB18DB68D318FB623B1C002254
:107FE0001A60FA6A3B1C5A601023FB181B699A0836
:107FF0003B1C9A603B1C181CFFF7B4FA031C00E002
:108000000023181CBD460CB080BDC04680B58CB0A6
:1080100000AF1023FB18181CFFF75CFA1023FB18A5
:108020001B69002B26D01023FB18DB68002B03D123
:10803000C0239B019B6806E01023FB189A6910235C
:10804000FB18DB68D318FB623B1C03221A603B1C45
:10805000D42292025A60FA6A3B1C9A601023FB18E1
:108060001B699A083B1CDA603B1C181CFFF77AFA64
:10807000031C00E00023181CBD460CB080BDC046A8
:1080800080B590B000AF1023FB18181CFFF722FA40
:108090001023FB18DB68002B01D1002354E01023D0
:1080A000FB18DB68802252019A181023FB189B6989
:1080B0009A4231D980235B01FB631023FB189A6934
:1080C000FB6BD31A5B08BB631023FB189A69102360
:1080D000FB18DB68D3187B631023FB189A69BB6B12
:1080E0005B00D3183B63BB6B5A00FB6BD318FB627E
:1080F000C0239B019A681023FB18DB689A4201D2C7
:108100000E2321E0386BF96A7A6B3B6BD21ABB6B9A
:10811000FFF784FE031C17E03B1C03221A603B1C84
:10812000802252015A601023FB189B691A1C3B1CC9
:108130009A601023FB18DB689A083B1CDA603B1C32
:10814000181CFFF70FFA031C181CBD4610B080BDA9
:1081500080B500AF0C4B1B785A1E9341DBB2012255
:108160005340DBB21A1C01231340DAB2064B1A70DB
:10817000064B1B68002B05D0044B1B68024A127883
:10818000101C9847BD4680BD04270020082700200A
:1081900075DF7047181CC04676DF7047181CC04654
:1081A0007ADF7047181CC0467BDF7047181CC0463A
:1081B00080B582B000AF78607B681B789AB27B682C
:1081C00001331B781B029BB213439BB29BB2181C5A
:1081D000BD4602B080BDC04690B585B000AF7860A6
:1081E0000E23FC187B68181CFFF7E2FF031C23809A
:1081F0000E23FB181B88012213405A1E9341DBB249
:10820000181CBD4605B090BD80B582B000AF786047
:108210007B685A88084B1B889A4207D37B685A8828
:10822000054B5B889A4201D8012300E00023181C0B
:10823000BD4602B080BDC0462827002080B586B06C
:1082400000AF7860294B1B88294A93424BD0294BB9
:108250001B780133DAB2274B1A70274B1A7B254B58
:108260001B789A4216D3214B1A88244B101C191CD8
:10827000FFF78EFF031C7B617B69002B09D01E4B2F
:108280009B69002B05D01C4B9B697A69101C984791
:1082900029E028E0174B00221A70174B1B7C002B9B
:1082A00013D0124B1B88181C3B21FFF775FF031CD2
:1082B0003B613B69002B08D00F4B9B69002B04D01E
:1082C0000D4B9B693A69101C98470B4B5B69002B5F
:1082D00009D00C23FB1800221A70074B5B690C2293
:1082E000BA18101C9847BD4606B080BD3227002042
:1082F000FFFF0000302700200C2700202827002047
:1083000090B585B000AF7860214B7A6813CA13C36B
:1083100013CA13C312681A601E4B00221A707B68BE
:108320001B68002B15D07B681B681B4A111C1A1C8C
:108330000823081C111C1A1C05F06BFC164B181C9A
:10834000FFF72EFF031CFB60FB68002B0CD0FB68C3
:1083500019E0114B181CFFF727FF031CFB60FB689B
:10836000002B01D0FB680EE00C4B012252421A8018
:108370000B4B00221A700B4A0B4B101C00211A1CCD
:1083800004F0CCFD031C181CBD4605B090BDC046D2
:108390000C2700204027002028270020322700201B
:1083A000302700203C2700203D82030080B500AF2D
:1083B000044B1B68181C04F06FFE031C181CBD4600
:1083C00080BDC0463C27002080B584B000AF284B5C
:1083D000181CFFF719FF031C1A1C01235340DBB2C2
:1083E000002B33D0234B1B78002B0CD0224B5B6926
:1083F000002B2AD03B1D00221A701F4B5B693A1DCF
:10840000101C98472EE01D4B1B78002B03D11A4BF4
:108410005B68FB6002E0184B9B68FB60184B1A68B6
:10842000FB68101C191C002204F0F0FD031CBB604B
:10843000BB68002B09D0104B9B69002B05D00E4B5D
:108440009B69BA68101C98470CE00BE00A4B5B690B
:10845000002B07D03B1C01221A70074B5B693A1CAA
:10846000101C9847034B00221A70BD4604B080BD13
:1084700034270020402700200C2700203027002030
:108480003C27002080B582B000AF78607B689A8876
:108490000B4B1A800B497B6816229B180822081C7C
:1084A000191C05F0B6FB084B00221A70074BDB893C
:1084B000002B01D1FFF788FFBD4602B080BDC0464A
:1084C0003227002034270020302700200C270020EE
:1084D00080B584B000AF78600E4B012252421A8002
:1084E0000D4B00221A700D4B1B68181C04F0D4FDB4
:1084F000031CFB60FB68002B08D0094B9B69002B19
:1085000004D0074B9B69FA68101C9847BD4604B01D
:1085100080BDC04632270020302700203C270020A5
:108520000C27002080B584B000AF78607B680633EC
:10853000FB60FB681A88144BDB899A4220D1FB68E8
:108540001B8B022B1CD1FB681A33181CFFF744FE4F
:10855000031E02D0FFF738FF12E00C4B1B68181CFB
:1085600004F09AFD031CBB60BB68002B08D0064BCF
:108570009B69002B04D0044B9B69BA68101C984778
:10858000BD4604B080BDC0460C2700203C2700201B
:1085900080B582B000AF786006497B6806229B18E0
:1085A0000822081C191C05F034FBFFF70DFFBD461F
:1085B00002B080BD3427002080B582B000AF786063
:1085C0007B681B88112B0DD002DC102B05D018E026
:1085D000122B11D0502B0AD013E07B68181CFFF728
:1085E00051FF0EE07B68181CFFF772FF09E07B6803
:1085F000181CFFF797FF04E07B68181CFFF7C8FF03
:10860000C046BD4602B080BD72DF7047181CC04630
:1086100079DF7047181CC0467DDF7047181CC046C4
:1086200065DF7047181CC04680B582B000AF021CE1
:108630003960BB1D1A80BB1D1B88DAB23B681A70FB
:108640003B680133BA1D1288120A92B2D2B21A7074
:108650000223181CBD4602B080BDC04680B588B05C
:1086600000AFF860B9607A601C23FB187A68127852
:108670001A701C23FB181B7802331F2B04DCFB68C9
:108680005B7802331F2B01DD0C2380E01C23FB18D9
:108690001B789AB21E23FB181D218A1A1A801623F2
:1086A000FB181E22BA1812881A801C23FB181B788C
:1086B0000233BA68D2181623FB18101C191CFFF7D6
:1086C000ABFF031CBB61BB69002B01D0BB695EE043
:1086D000FB681B78022B12D11623FB181B881E2265
:1086E000BA1812889A420AD31D23FB1809221A705D
:1086F0001E23FB181622BA1812881A801BE01D23AD
:10870000FB1808221A70FB685B78002B0DD0FB6801
:108710005B789BB21E22BA1812889A4205D3FB6876
:108720005A781E23FB181A8005E01E23FB18162218
:10873000BA1812881A801C23FB181B781C22BA183E
:10874000591C11701A1CBB689B181E22BA1812887B
:10875000D2B20132D2B21A701C23FB181B781C2231
:10876000BA18591C11701A1CBB689B181D22BA1824
:1087700012781A707B681A781E23FB181B88DBB2EC
:10878000D318DBB20233DAB27B681A700023181CEC
:10879000BD4608B080BDC04680B584B000AF7860EB
:1087A00039603B681B7804331F2B01DD0C2336E056
:1087B0000A23FB18181CFFF72BFF031CFB60FB6848
:1087C000002B01D0FB682AE03B681B785A1CD1B211
:1087D0003A6811701A1C7B689B1803221A703B6858
:1087E0001B785A1CD1B23A6811701A1C7B689B180E
:1087F00019221A700A23FB181A883B681B78191C67
:108800007B685B18101C191CFFF70EFF031C1A1C59
:108810003B681B789B18DAB23B681A700023181C5F
:10882000BD4604B080BDC04680B584B000AFB9601D
:108830007A600F23FB18021C1A707B681B780333C5
:108840001F2B01DD0C2323E07B681B785A1CD1B25F
:108850007A6811701A1CBB689B1802221A707B6818
:108860001B785A1CD1B27A6811701A1CBB689B180D
:108870000A221A707B681B785A1CD1B27A68117070
:108880001A1CBB689B180F22BA1812781A700023A2
:10889000181CBD4604B080BD80B58AB000AFF8603A
:1088A000081C111C7B600B23FB18021C1A700A2386
:1088B000FB180A1C1A702323FB1800221A702223AB
:1088C000FB183A6B12781A7000237B6280E0FB6819
:1088D0005A687B6A9B00D3181422BA18111C1A1C00
:1088E0000423081C111C1A1C05F093F91423FA1810
:1088F0001A23FB18101C191C0022FFF791FE031C01
:10890000FB61FB69002B01D0FB697DE01A23FB189A
:108910001B780A22BA1812789A4256D12323FB18E0
:108920001B78002B01D0002200E002221B23FB1841
:108930001A703B6B1B781A1C1A23FB181B78D21871
:108940001B23FB181B78D3181F2B01DD0C235BE0C6
:108950002323FB181B7801225340DBB2002B16D0D7
:108960003B6B1B780133DAB23B6B1A703B6B1B78A5
:108970005A1CD1B23A6B11701A1C7B689B180B22DF
:10898000BA1812781A702323FB1801221A703B6B55
:108990001B781A1C7B689B181422B9181A22BA1863
:1089A000081C111C1A1CFFF73BFE031CFB61FB6932
:1089B000002B01D0FB6927E03B6B1A781A23FB18C8
:1089C0001B78D318DAB23B6B1A707B6A01337B6277
:1089D000FB681B881A1E7B6A9A4200DD77E7232317
:1089E000FB181B78002B0ED02223FB181B787A680B
:1089F000D3183A6B11782222BA1812788A1AD2B296
:108A0000013AD2B21A700023181CBD460AB080BDCC
:108A100090B589B002AFF860081C111C7B600B2375
:108A2000FB18021C1A700A23FB180A1C1A70F9683A
:108A30000B23FB181A787C68BB6A0093081C111C76
:108A40000222231CFFF728FF031C7B617B69002B9C
:108A500001D07B6914E0F9680A23FB181A787C6856
:108A6000BB6A0093081C111C1022231CFFF714FF83
:108A7000031C7B617B69002B01D07B6900E0002334
:108A8000181CBD4607B090BD80B582B000AF7860BD
:108A90007B681B88052B0AD97B681A88C8231B01B1
:108AA0009A4206D97B681B88164A934201D0072355
:108AB00023E07B685B88052B0AD97B685A88C8232A
:108AC0001B019A4206D97B685B880E4A934201D00B
:108AD000072312E07B681B880A4A93420CD07B680C
:108AE0005B88084A934207D07B681A887B685B885A
:108AF0009A4201D9072300E00023181CBD4602B0AA
:108B000080BDC046FFFF000080B586B000AFF860B2
:108B1000B9607A607B681B7806331F2B01D90C2360
:108B200047E0FB68181CFFF7AFFF031C7B617B6904
:108B3000002B01D07B693CE07B681B785A1CD1B2CA
:108B40007A6811701A1CBB689B1805221A707B6822
:108B50001B785A1CD1B27A6811701A1CBB689B181A
:108B600012221A70FB681A887B681B78191CBB6874
:108B70005B18101C191CFFF757FD031C1A1C7B689F
:108B80001B789B18DAB27B681A70FB685A887B687E
:108B90001B78191CBB685B18101C191CFFF744FDDF
:108BA000031C1A1C7B681B789B18DAB27B681A704E
:108BB0000023181CBD4606B080BDC04680B586B0F7
:108BC00000AFF860B9607A60FB689B88DAB217235F
:108BD000FB1802321A707B681B789A1C1723FB184B
:108BE0001B78D3181F2B01DD0C234EE07B681B780C
:108BF0005A1CD1B27A6811701A1CBB689B181722D4
:108C0000BA1812780132D2B21A707B681B785A1CDB
:108C1000D1B27A6811701A1CBB689B18FF221A70B7
:108C2000FB681A887B681B78191CBB685B18101CD2
:108C3000191CFFF7F9FC031C1A1C7B681B789B1896
:108C4000DAB27B681A70FB689B88002B1CD0FB682B
:108C50009B68002B01D1072317E07B681B781A1C47
:108C6000BB689918FB689A68FB689B88081C111CF4
:108C70001A1C04F0CEFF7B681A78FB689B88DBB275
:108C8000D318DAB27B681A700023181CBD4606B0F0
:108C900080BDC04680B588B000AFF860B9607A602A
:108CA000FB689B6A002B01D1072374E01F23FB188C
:108CB00000221A7066E0FB68996A1F23FB181A7875
:108CC000131C5B009B189B00CB18BB61BB699B8886
:108CD000DAB21723FB1802321A707B681B785A1C11
:108CE000D1B27A6811701A1CBB689B181722BA1887
:108CF00012780132D2B21A707B681B785A1CD1B23A
:108D00007A6811701A1CBB689B1816221A70BB690E
:108D10001A887B681B78191CBB685B18101C191C0F
:108D2000FFF782FC031C1A1C7B681B789B18DAB2C5
:108D30007B681A70BB699B88002B1CD0BB699B6841
:108D4000002B01D1072326E07B681B781A1CBB6827
:108D50009918BB699A68BB699B88081C111C1A1C6E
:108D600004F057FF7B681A78BB699B88DBB2D31885
:108D7000DAB27B681A701F23FB181A781F23FB18BE
:108D800001321A70FB682C229B5C1F22BA181278E1
:108D90009A4290D30023181CBD4608B080BDC0463F
:108DA00090B589B002AFF860B9607A6000237B614A
:108DB0007B6800221A70FB681B78002B0ED0F968C4
:108DC000BA687B68081C111C1A1CFFF747FC031CBF
:108DD0007B617B69002B01D07B69CEE0FB689B78CF
:108DE000002B0CD0BA687B68101C191CFFF7D4FC50
:108DF000031C7B617B69002B01D07B69BDE0FB68B4
:108E0000DB78002B21D07B681B785A1CD1B27A68A2
:108E100011701A1CBB689B1802221A707B681B78A1
:108E20005A1CD1B27A6811701A1CBB689B180122B7
:108E30001A707B681B785A1CD1B27A6811701A1CA0
:108E4000BB689B18FA68D2781A70FB685B68002BC5
:108E500011D0FB685B681B7859B2BA687B68081C44
:108E6000111C1A1CFFF7E0FC031C7B617B69002BC3
:108E700001D07B6981E0FB681B89002B12D0FB6865
:108E800008331A1CBC687B680093101C0221062260
:108E9000231CFFF7BDFD031C7B617B69002B01D008
:108EA0007B696AE0FB681B8A002B12D0FB681033D9
:108EB0001A1CBC687B680093101C03210722231C2A
:108EC000FFF7A6FD031C7B617B69002B01D07B694A
:108ED00053E0FB681B8B002B12D0FB6818331A1C65
:108EE000BC687B680093101C14211522231CFFF71B
:108EF0008FFD031C7B617B69002B01D07B693CE00B
:108F0000FB681B6A002B0FD0FB68196ABA687B6884
:108F1000081C111C1A1CFFF7F7FD031C7B617B6901
:108F2000002B01D07B6928E0FB685B6A002B0FD027
:108F3000FB68596ABA687B68081C111C1A1CFFF789
:108F40003DFE031C7B617B69002B01D07B6914E033
:108F5000FB682C229B5C002B0ED0F968BA687B68FA
:108F6000081C111C1A1CFFF795FE031C7B617B6912
:108F7000002B01D07B6900E07B69181CBD4607B05F
:108F800090BDC04680B582B000AF78607B68DB786A
:108F90001A1C0423134001D1072300E00023181CEE
:108FA000BD4602B080BDC04680B582B000AF7860DB
:108FB0007B68DB78002B01D0072300E00023181C1E
:108FC000BD4602B080BDC04680B596B000AF7860A7
:108FD00039604B23FB1800221A704A23FB18002229
:108FE0001A707B68002B1FD07B68181CFFF7CAFF24
:108FF000031CFB64FB6C002B01D0FB6C46E0796822
:109000002823FA184B23FB18081C111C1A1CFFF705
:10901000C7FE031CFB64FB6C002B01D0FB6C35E02E
:109020002823FB187B6501E000237B653B68002B50
:109030001FD03B68181CFFF7B7FF031CFB64FB6CD9
:10904000002B01D0FB6C21E039680823FA184A2371
:10905000FB18081C111C1A1CFFF7A2FE031CFB6462
:10906000FB6C002B01D0FB6C10E00823FB183B6568
:1090700001E000233B654B23FB1819784A23FB18BA
:109080001B78786D3A6DFFF7BFFA031C181CBD46BC
:1090900016B080BD80B582B000AF786039603B68A3
:1090A000181C04F0BFFD031C9AB27B681A807B6811
:1090B0003A685A60BD4602B080BDC04680B582B0F5
:1090C00000AF021C3960BB1D1A80BB1D1B88DAB2C1
:1090D0003B681A703B680133BA1D1288120A92B2BB
:1090E000D2B21A700223181CBD4602B080BDC04621
:1090F000A0DF7047181CC046A2DF7047181CC0468E
:10910000F0B593B000AFF863B963BB6B5A1E9341DF
:10911000DBB27B647B6C002B05D14F4B00203321ED
:109120001A1CFCF79BF8FB6B5A1E9341DBB23B64A5
:109130003B6C002B05D1484B002034211A1CFCF756
:109140008DF8BB6B5C681B68DBB2FA6B1370FB6B52
:10915000591CBB6B5C681B68FF2212021A40151C6D
:109160000022231C13401E1C33062A0A3A633A6B62
:109170001A433A63330A7B633023FB181B780B7066
:10918000FB6B991CBB6B5C681B68FF2212041A40C6
:10919000BA610022231C1340FB61BC69FD692B1CD2
:1091A0001B04221C120CBA62BA6A1A43BA622B1C44
:1091B0001B0CFB622823FB181B780B70FB6BDA1C63
:1091C000BB6B5C681B68190E090639610021231C02
:1091D0000B407B613C697D692B1C1B02211C090E25
:1091E0003962396A194339622B1C1B0E7B622023BA
:1091F000FB181B781370FB6B1A1DBB6B5C681B683C
:1092000000211940B960FF21231C0B40FB60FB6863
:109210001B003B6000237B603B781370FB6B5A1D87
:10922000BB6B9B68DBB21370FB6B9A1DBB6B9968C1
:10923000FF231B020B401B0ADBB21370FB6BDA1D12
:10924000BB6B9968FF231B040B401B0CDBB2137034
:10925000BD4613B0F0BDC04630E0030080B586B017
:1092600000AF786039601723FB1800221A703B6842
:109270005A1E9341DBB23B613B69002B05D1384B51
:1092800000204B211A1CFBF7E9FF7B685A1E934113
:10929000DBB2FB60FB68002B05D1314B00204C2179
:1092A0001A1CFBF7DBFF1723FB181B781722BA18D1
:1092B000591C11701A1C7B689B183A6812781A7036
:1092C0003B6859881723FB181B787A68D318081C49
:1092D000191CFFF7F3FE031C191C1723FB18172298
:1092E000BA1812788A181A703B6899881723FB18E5
:1092F0001B787A68D318081C191CFFF7DFFE031CC3
:10930000191C1723FB181722BA1812788A181A701A
:109310003B68D9881723FB181B787A68D318081C78
:10932000191CFFF7CBFE031C191C1723FB1817226F
:10933000BA1812788A181A701723FB181B78073B83
:109340005A425341DBB2BB60BB68002B05D1044BD2
:10935000002054211A1CFBF781FFBD4606B080BDDA
:1093600030E0030080B594B000AFB960111C7B60A1
:109370000E23FB18021C1A800C23FB180A1C1A80EF
:10938000BB685A1E9341DBB2FB64FB6C002B05D11A
:109390004F4B00206D211A1CFBF760FF0C23FB18BC
:1093A0001B885A1E9341DBB2BB64BB6C002B05D1FA
:1093B000474B00206E211A1CFBF750FF2823FB1897
:1093C000181C00211C22FBF7F3FE2823FB181A7837
:1093D00002210A431A702823FB1800225A6028230E
:1093E000FB180022DA602823FB1800221A612823C8
:1093F000FB1800225A612823FB1800229A6144239B
:10940000FB1801229A704423FB180E22BA18128806
:109410001A801023FB18181C00210322FBF7C8FE3A
:109420001023FB187A6812781A701023FB187A68D8
:1094300052785A701023FB189A7806218A43111C1F
:1094400002220A439A701023FB189A7808218A4353
:109450009A701023FB189A7810218A439A7010236F
:10946000FB189A7801218A439A701423FB18181C60
:1094700000211422FBF79CFE1423FB184422BA1887
:109480001A601423FB181022BA185A601423FB1810
:109490000C22BA1812881A811423FB1800225A8150
:1094A0001423FB180C22BA1812889A811423FB1873
:1094B000BA681A61074B18882823F9181423FA1878
:1094C000BB6DFFF719FE031C181CBD4614B080BD10
:1094D00030E003004227002090B58BB002AF7860E7
:1094E0001823FB1801229A701823FB18814A1A804E
:1094F0001823FA18804B0120111C1A1CFFF7F8FDE5
:10950000031CFB61FB69002B01D0FB69EDE07B686C
:109510001B88002B13D07B6859687B681A887B688E
:109520003C331C1C7548764B0093231CFFF71AFF35
:10953000031CFB61FB69002B01D0FB69D5E07B6854
:109540001B89002B13D07B68D9687B681A897B68DC
:109550003C331C1C6B486C4B0093231CFFF702FF31
:10956000031CFB61FB69002B01D0FB69BDE07B683C
:109570001B8A002B13D07B6859697B681A8A7B6829
:109580003C331C1C6148624B0093231CFFF7EAFE2E
:10959000031CFB61FB69002B01D0FB69A5E07B6824
:1095A0001B8B002B13D07B68D9697B681A8B7B6877
:1095B0003C331C1C5748584B0093231CFFF7D2FE2A
:1095C000031CFB61FB69002B01D0FB698DE07B680C
:1095D0001B8C002B13D07B68596A7B681A8C7B68C4
:1095E0003C331C1C4D484E4B0093231CFFF7BAFE26
:1095F000031CFB61FB69002B01D0FB6975E07B68F4
:109600001B8D002B13D07B68D96A7B681A8D7B6811
:109610003C331C1C4348444B0093231CFFF7A2FE21
:10962000031CFB61FB69002B01D0FB695DE07B68DB
:109630001B6B002B1CD07B681B6B1022BA18101CF4
:10964000191CFFF75DFD7B683C331C1C3749102358
:10965000FA18374B0093081C111C0822231CFFF733
:1096600081FE031CFB61FB69002B01D0FB693CE020
:109670007B685B6B002B16D07B685B6B19687B6823
:109680005B6B1B799AB27B683C331C1C29482A4BC4
:109690000093231CFFF766FE031CFB61FB69002B94
:1096A00001D0FB6921E07B689B6B002B1CD07B68A1
:1096B0009B6B0822BA18101C191CFFF7CFFD7B68A2
:1096C0003C331C1C1D490823FA181D4B0093081C31
:1096D000111C0722231CFFF745FE031CFB61FB69DD
:1096E000002B01D0FB6900E00023181CBD4609B027
:1096F00090BDC0460A18000042270020292A000019
:1097000044270020242A00004C270020252A00009E
:1097100054270020272A00005C270020262A00006A
:1097200064270020282A00006C270020232A00003C
:10973000742700202A2A00007C270020502A0000DD
:1097400084270020A0DF7047181CC046A2DF7047A6
:10975000181CC046A5DF7047181CC046A6DF70471E
:10976000181CC046A8DF7047181CC04663DF70474E
:10977000181CC04680B582B000AF786039607B6845
:10978000DAB23B681A703B6801337968FF22120233
:109790000A40120AD2B21A703B6802337968FF227B
:1097A00012040A40120CD2B21A703B6803337A6872
:1097B000120ED2B21A700423181CBD4602B080BD2E
:1097C00080B582B000AF78607B681B789AB27B6806
:1097D00001331B781B029BB213439BB29BB2181C34
:1097E000BD4602B080BDC04690B585B000AF786080
:1097F0000E23FC187B68181CFFF7E2FF031C238074
:109800000E23FB181B88012213405A1E9341DBB222
:10981000181CBD4605B090BD80B590B000AF786013
:109820002423FB18181C00211C22FBF7C1FC242355
:10983000FB181A7804210A431A702423FB1800220B
:109840005A602423FB180022DA602423FB1800222C
:109850001A612423FB1800225A612423FB180022DA
:109860009A617B689A790C23FB189A700C23FB1879
:10987000384A1A800823FB18181C00210322FBF722
:1098800097FC0823FB181A780F218A431A700823C3
:10989000FB181A780F210A401A700823FB185A780F
:1098A0000F218A43111C01220A435A700823FB1816
:1098B0005A780F210A40111C10220A435A700823BB
:1098C000FB189A7806218A43111C02220A439A70D7
:1098D0000823FB189A7808218A439A700823FB18FA
:1098E0009A7810218A439A700823FB189A780121EC
:1098F0000A439A701023FB18181C00211422FBF74E
:1099000057FC1023FB180C22BA181A601023FB18FE
:109910000822BA185A601023FB1800221A8110235B
:10992000FB1800225A811023FB1814229A8110235D
:10993000FB1800221A617B6898887B680833242210
:10994000B9181022BA18FFF701FF031C181CBD46F6
:1099500010B080BD3215000080B590B000AF7860C7
:1099600039602423FB18181C00211C22FBF720FC63
:109970002423FB181A7802210A431A702423FB18A7
:1099800000225A602423FB180022DA602423FB18EB
:1099900000221A612423FB1800225A612423FB1899
:1099A00000229A617B689A790C23FB189A700C2329
:1099B000FB18394A1A800823FB18181C00210322BF
:1099C000FBF7F6FB0823FB181A780F218A43111CBA
:1099D00001220A431A700823FB181A780F210A4043
:1099E000111C10220A431A700823FB185A780F2101
:1099F0008A435A700823FB185A780F210A405A707C
:109A00000823FB189A7806218A43111C02220A4374
:109A10009A700823FB189A7808218A439A700823C1
:109A2000FB189A7810218A439A700823FB189A78B9
:109A300001210A439A701023FB18181C00211422DC
:109A4000FBF7B6FB1023FB180C22BA181A60102380
:109A5000FB180822BA185A601023FB1802221A8138
:109A60001023FB1800225A811023FB1802229A812E
:109A70003A681023FB181A617B6898887B6820334A
:109A80002422B9181022BA18FFF760FE031C181C14
:109A9000BD4610B080BDC0463415000080B590B002
:109AA00000AF78602423FB18181C00211C22FBF750
:109AB0007FFB2423FB181A7808210A431A702423F9
:109AC000FB181A7810210A431A702423FB1800226D
:109AD0005A602423FB180022DA602423FB1800229A
:109AE0001A612423FB1800225A612423FB18002248
:109AF0009A617B689A790C23FB189A700C23FB18E7
:109B0000384A1A800823FB18181C00210322FBF78F
:109B10004FFB0823FB181A780F218A431A70082379
:109B2000FB181A780F210A401A700823FB185A787C
:109B30000F218A43111C01220A435A700823FB1883
:109B40005A780F210A40111C10220A435A70082328
:109B5000FB189A7806218A43111C02220A439A7044
:109B60000823FB189A7808218A439A700823FB1867
:109B70009A7810210A439A700823FB189A780121D9
:109B80000A439A701023FB18181C00211422FBF7BB
:109B90000FFB1023FB180C22BA181A601023FB18B5
:109BA0000822BA185A601023FB1800221A811023C9
:109BB000FB1800225A811023FB1817229A811023C8
:109BC000FB1800221A617B6898887B681033242276
:109BD000B9181022BA18FFF7B9FD031C181CBD46AE
:109BE00010B080BD3115000080B582B000AF786044
:109BF00039603B689A887B681A80BD4602B080BD98
:109C000080B586B000AF78600823FB18181C0021CF
:109C10000822FBF7CDFA0823FB1802221A8008233A
:109C2000FB1800225A800823FB181022BA185A6029
:109C30007B6819887B689A8A0823FB18081C111C0A
:109C40001A1CFFF787FD031C7B617B69002B0AD080
:109C50007B68DB6A002B04D07B68DB6A7A69101CA6
:109C60009847002305E01023FB18181CFFF7BCFDE4
:109C7000031C181CBD4606B080BDC04680B58AB026
:109C800000AF786039601423FB1802221A707B68D9
:109C9000181CFFF7B5FF031C1A1C01235340DBB24D
:109CA000002B0ED01423FB18FE22FF329A807B6813
:109CB0001A881423FB18101C191CFFF753FD031CF2
:109CC000DFE01423FB1800229A807B681A88142393
:109CD000FB18101C191CFFF745FD031C7B627B6AF7
:109CE000002B01D07B6ACCE03B689B7E082B00D91F
:109CF000BCE09A00654BD3181B689F460823FB18ED
:109D000000221A703B681B8B012B09D83B689B7E95
:109D10007A68101C191C062200F0D8FA031CB0E067
:109D20000823FB1801221A713B681B331A1C0823F5
:109D3000FB189A607B689B6A79680822BA18081C2D
:109D4000111C98479CE00823FB1801221A703B68FD
:109D50001B8B012B09D83B689B7E7A68101C191C51
:109D6000062200F0B3FA031C8BE00823FB18012243
:109D70001A713B681B331A1C0823FB189A607B6816
:109D80009B6A79680822BA18081C111C984777E06A
:109D90000823FB1802221A707B689B6A79680822E4
:109DA000BA18081C111C98476AE00823FB18032204
:109DB0001A707B689B6A79680822BA18081C111C03
:109DC00098475DE00823FB1804221A707B689B6AA1
:109DD00079680822BA18081C111C984750E008231B
:109DE000FB1805221A707B689B6A79680822BA18EA
:109DF000081C111C984743E03B681B8B022B07D8BB
:109E00007B68181C0821032200F060FA031C38E06C
:109E10003B681B33181CFFF7D3FC031C1A1C0823D8
:109E2000FB189A800823FB189B88002B04D1082379
:109E3000FB1807221A7003E00823FB1806221A7089
:109E40007B689B6A79680822BA18081C111C98471D
:109E500016E00823FB1809221A707B689B6A796850
:109E60000822BA18081C111C984709E03B689B7E21
:109E70007A68101C191C032200F028FA031C00E069
:109E80000023181CBD460AB080BDC0466CE003002C
:109E900080B584B000AF786039603B680633FB6002
:109EA000FB681B78022B26D1FB685A887B681B8ACB
:109EB0009A4220D13B689B7A042B1CD03B689B7A4A
:109EC000062B18D03B689B7A052B14D0FB68023315
:109ED0007A68101C191CFFF7D1FE031CBB60BB681D
:109EE000002B08D07B68DB6A002B04D07B68DB6A20
:109EF000BA68101C9847BD4604B080BD80B586B0D6
:109F000000AF786039603B68DA887B681B899A42C9
:109F100017D10C23FB1808221A703B68DB8BDAB2CE
:109F20000C23FB181A713B6820331A1C0C23FB18F6
:109F30009A607B689B6A79680C22BA18081C111C0D
:109F40009847BD4606B080BD80B582B000AF78604E
:109F500039607B68012252421A80BD4602B080BD42
:109F600080B588B000AF786039607B68002B06D080
:109F70003B68002B03D03B685B68002B01D10E23AC
:109F80006AE07B68012252421A800823FA18344B97
:109F9000111C1A1C1023081C111C1A1C03F039FE7A
:109FA0001823FB182F4A1A800823FA181823FB18C5
:109FB0000233101C191CFFF7D9FB031CFB61FB6962
:109FC000002B01D0FB6947E07B6804331822BA18E4
:109FD0000120111C1A1CFFF7B5FB031CFB61FB6978
:109FE000002B01D0FB6937E01823FB189A787B68B7
:109FF0009A717B68181CFFF70FFC031CFB61FB695F
:10A00000002B01D0FB6927E07B68181CFFF746FD99
:10A01000031CFB61FB69002B01D0FB691CE07A6823
:10A020003B68101C191CFFF797FC031CFB61FB69C4
:10A03000002B01D0FB690FE03B685A687B689A628D
:10A040003B689B68002B03D03B689A687B68DA62A8
:10A05000054B01221A700023181CBD4608B080BDB4
:10A0600090E00300301500008C27002080B582B0FE
:10A0700000AF786039607B68002B02D03B68002B12
:10A0800000D12CE07B689B6A002B28D03B681B88A2
:10A09000112B16D002DC102B05D020E0502B09D05C
:10A0A000512B15D01BE07A683B68101C191CFFF778
:10A0B0009BFD14E07A683B68101C191CFFF71EFF1B
:10A0C0000DE07A683B68101C191CFFF73DFF06E0A5
:10A0D0007A683B68101C191CFFF7DAFEC046BD46C3
:10A0E00002B080BD80B588B000AF786039607B6811
:10A0F000002B01D10E2370E07B681B88394A934204
:10A1000006D0394B1B7801225340DBB2002B01D023
:10A11000082362E00E23FB1800221A800E23FB188E
:10A120001B885A1C91B20E22BA1811801A1C2F4B90
:10A13000102199540E23FB181B885A1C91B20E2231
:10A14000BA1811801A1C294B072199540E23FB18A9
:10A150001B885A1C91B20E22BA1811801A1C234B6C
:10A16000012199540E23FB181B881A1C1F4BD3186E
:10A170003A68101C191CFFF7FDFA031C9AB20E2353
:10A18000FB181B88D3189AB20E23FB181A801023D1
:10A19000FB18181C00211022FBF70AF87B681A8AAA
:10A1A0001023FB181A801023FB1801229A70102329
:10A1B000FB1800229A801023FB180E22BA189A600E
:10A1C0001023FB18094ADA607B681A881023FB18F1
:10A1D000101C191CFFF7C2FA031C181CBD4608B05E
:10A1E00080BDC046FFFF00008C2700209027002084
:10A1F00080B588B000AF786039607B68002B01D1F2
:10A200000E2358E07B681B882D4A934206D02D4BC5
:10A210001B7801225340DBB2002B01D008234AE017
:10A220000E23FB1800221A800E23FB181B885A1CD1
:10A2300091B20E22BA1811801A1C234B1121995485
:10A240000E23FB181B881A1C1F4BD3183A68101CCE
:10A25000191CFFF78FFA031C9AB20E23FB181B88F8
:10A26000D3189AB20E23FB181A801023FB18181C5F
:10A2700000211022FAF79CFF7B681A8A1023FB1832
:10A280001A801023FB1801229A701023FB18002259
:10A290009A801023FB180E22BA189A601023FB181C
:10A2A000094ADA607B681A881023FB18101C191CF5
:10A2B000FFF754FA031C181CBD4608B080BDC04609
:10A2C000FFFF00008C2700209027002080B588B079
:10A2D00000AF7860081C111CFB1C021C1A70BB1C10
:10A2E0000A1C1A707B68002B01D10E235DE07B688D
:10A2F0001B88304A934206D02F4B1B7801225340D3
:10A30000DBB2002B01D008234FE00E23FB18002204
:10A310001A800E23FB181B885A1C91B20E22BA1801
:10A3200011801A1C254B102199540E23FB181B88F1
:10A330005A1C91B20E22BA181180191C1F4BFA1C1C
:10A3400012785A540E23FB181B885A1C91B20E2205
:10A35000BA181180191C194BBA1C12785A541023C0
:10A36000FB18181C00211022FAF722FF7B681A8ABA
:10A370001023FB181A801023FB1801229A70102357
:10A38000FB1800229A801023FB180E22BA189A603C
:10A390001023FB18094ADA607B681A881023FB181F
:10A3A000101C191CFFF7DAF9031C181CBD4608B075
:10A3B00080BDC046FFFF00008C27002090270020B2
:10A3C00080B584B000AF786014E07B68013B7B60AF
:10A3D0000B4BFB60FB68181C0138C046C046C046EA
:10A3E000C046C046C046C046C046C046C046C0463D
:10A3F000C046F1D17B68002BE7D1BD4604B080BDDB
:10A40000E703000029DF7047181CC04628DF7047AB
:10A41000181CC04680B582B000AF78607B6803220C
:10A4200013405A425341DBB2181CBD4602B080BDF6
:10A4300080B582B000AF78601E497A68131C5B005B
:10A440009B18DB00CB1800221A711A497A68131C7A
:10A450005B009B18DB00CB1800229A6015497A68D4
:10A46000131C5B009B18DB00CB18083301229A6099
:10A4700010497A68131C5B009B18DB00CB1808336B
:10A480000022DA600B497A68131C5B009B18DB0022
:10A49000CB18103300229A6006497A68131C5B00BF
:10A4A0009B18DB00CB18083300225A60BD4602B06F
:10A4B00080BDC0469827002080B582B000AF0F4B0A
:10A4C00000221A600E4B00221A700E4B00221A70E6
:10A4D0000C4B00225A700B4B00229A7000237B60B9
:10A4E00006E07B68181CFFF7A3FF7B6801337B60E5
:10A4F0007B68092BF5D9BD4602B080BD94280020A9
:10A50000992800209827002080B586B000AFB96058
:10A510007A603B600F23FB18021C1A701323FB1890
:10A5200000221A70404B5B780A2B76D03E4B19788C
:10A530003D4B5A781323FB188A181A701323FB1803
:10A540001B78092B06D91323FB181322BA1812788B
:10A550000A3A1A701323FB181A783349131C5B004C
:10A560009B18DB000F22BA18CB1812781A7113232C
:10A57000FB181A782C49131C5B009B18DB00CB18C6
:10A5800000225A711323FB181A782749131C5B0009
:10A590009B18DB00CB1810337A689A601323FB18E2
:10A5A0001A7821490820131C5B009B18DB00CB188C
:10A5B0001B18BA68083303CA03C31323FB181A789D
:10A5C0001949131C5B009B18DB00CB183A689A6092
:10A5D0001323FB181A781449131C5B009B18DB002B
:10A5E000CB1808333A6A5A6000237B610E4B9B7884
:10A5F00001225340DBB2002B08D000F0D1FA031C3B
:10A600007B617B69112B01D100237B61064B5B7859
:10A610000133DAB2044B5A7001E004237B617B6999
:10A62000181CBD4606B080BD9827002080B582B0BA
:10A6300000AF00237B600E4B5B78002B12D00C4BDD
:10A640009B7801225340DBB2002B0BD000F0A8FA1C
:10A65000031C7B607B68002B04D07B68112B01D12D
:10A6600000237B607B68181CBD4602B080BDC046DD
:10A6700098270020B0B586B002AF786039600B2310
:10A68000FB183A6812781A703B68DB68022B03D11A
:10A690000F4B1B68FB6008E03B68DA680D49131C30
:10A6A0009B009B189B005B58FB603B680C33181C9D
:10A6B0003B685D693B685B680B22BA1811787A6861
:10A6C0000093FC682B1CA047BD4604B0B0BDC0463B
:10A6D000B02800209C28002080B586B000AF7860AC
:10A6E00000237B61984B9B78002B00D129E1964B8E
:10A6F00000229A70954B1B78082B21D17B68022B86
:10A7000003D1924B00221A7002E0914B00221A7082
:10A71000FFF78CFF031C7B617B69002B0FD08A4BFA
:10A720001B781A1C131C5B009B18DB00864A9B18C5
:10A7300004337A69101C191CFFF79CFF01E100E14A
:10A740007B68022B03D0032B00D1C4E0F9E07E4BE1
:10A750001B781A1C131C5B009B18DB007A4A9B18A1
:10A7600004333B617B4B1B685A1C7A4B1A603B6974
:10A770001B78022B08D1774B1B689A023B695B68F8
:10A780009A4201D3012200E000220F23FB181A7025
:10A790001A7801210A401A703B691B78052B05D1F4
:10A7A0006A4B1B78072B01D1012200E000220E2307
:10A7B000FB181A701A7801210A401A703B691B783D
:10A7C000042B05D1614B1B78072B01D1012200E03E
:10A7D00000220D23FB181A701A7801210A401A7002
:10A7E0003B691B78042B0CD15A4B1B689A023B69BE
:10A7F0005B689A4205D3554B1B78002B01D101228F
:10A8000000E000220C23FB181A701A7801210A407C
:10A810001A700E23FB181B78002B0ED10D23FB188A
:10A820001B78002B09D10C23FB181B78002B04D1BB
:10A830000F23FB181B78002B35D00B23FB18424A43
:10A8400012781A70414B00221A70424B00221A6093
:10A850003D4B5B78013BDAB23B4B5A703A4B1B786D
:10A860000133DAB2384B1A70374B1B78092B05D9F4
:10A87000354B1B780A3BDAB2334B1A700B23FB18AB
:10A880001A78131C5B009B18DB002F4A9B180433BB
:10A890007A69101C191CFFF7EDFE0B23FB181B78BF
:10A8A000181CFFF7C5FDFFF7C1FE031C7B617B6928
:10A8B000002B0FD0244B1B781A1C131C5B009B1819
:10A8C000DB00214A9B1804337A69101C191CFFF71E
:10A8D000D1FE36E035E01C4B1B781A1C131C5B00C4
:10A8E0009B18DB00184A9B1804333B613B695B787B
:10A8F0000133DAB23B695A703B695B78032B0ED1A6
:10A90000114B1B781A1C131C5B009B18DB000E4AB2
:10A910009B1804330D20191CFFF7ACFE10E000F06B
:10A920003FF9031C7B617B69002B09D07B69112BEC
:10A9300006D07A693B69101C191CFFF79BFEFFE7E4
:10A94000C046BD4606B080BD98270020992800204B
:10A95000982800209428002080B586B000AFF860C9
:10A96000B9607A603B6003237B618B4B1B78002BC3
:10A970000CD17B68002B06D13B68002B03D1864BA2
:10A9800002221A7002E0844B01221A70824B1B785B
:10A99000062B00D9FAE09A00804BD3181B689F461B
:10A9A00080235B055A6980235B051B699BB2534377
:10A9B000191C80235B051B699BB21A1CBB6853439F
:10A9C0001A1C80235B051B699BB29B089BB2081C69
:10A9D000111C1A1CFFF716FD031C7B617B69002B01
:10A9E00003D16D4B02221A70D1E0D0E0BB68181C75
:10A9F000FFF70CFD031C7B617B69002B19D17B6881
:10AA0000002B12D13B68002B0BD1FB681B78042B69
:10AA100003D1614B07221A700BE05F4B05221A70BD
:10AA200007E05D4B04221A70B1E05B4B03221A7001
:10AA3000ADE0ACE080235B051B699BB21A1CBB68D0
:10AA40005343191C80235B055A6980235B051B69EE
:10AA50009BB253431A1C7B68081C111C1A1CFFF77D
:10AA6000D1FC031C7B617B69002B12D13B68002B5E
:10AA70000BD1FB681B78042B03D1474B06221A70BD
:10AA800007E0454B05221A7081E0434B04221A70FF
:10AA90007DE07CE080235B051B699BB21A1CBB68D0
:10AAA0005A437B689B00D218FB685B68D318191C5B
:10AAB00080235B055A6980235B051B699BB25A435F
:10AAC0007B689B00D218FB685B68D3181A1C3B6834
:10AAD000081C111C1A1CFFF795FC031C7B617B6989
